:100000009DC300000C945F250C9434250C940925A5
:100010000C94DE240C94B3240C9488240C945D245A
:100020000C943224BCC30000BAC30000B8C3000063
:10003000B6C30000B4C30000B2C30000B0C30000E8
:10004000AEC30000ACC30000AAC30000A8C30000F8
:10005000A6C30000A4C30000A2C300000C94E823C0
:100060009EC300000C94E8220C94BF2298C30000A9
:1000700096C3000094C3000092C3000090C3000028
:100080008EC300008CC300008AC3000088C3000038
:100090000C9496220C946D2282C300000C94181BC1
:1000A0007EC300007CC300007AC3000078C3000058
:1000B00076C3000074C3000072C3000070C3000068
:1000C0006EC300006CC300006AC3000068C3000078
:1000D00066C3000064C3000062C3000060C3000088
:1000E0005EC30000B020B320A220A620AC20EA20EE
:1000F000B720BB20C120C520C920CF20D320D720C6
:10010000EA20DD20E120E520372F312F492F402F35
:100110003C2F082F2B2FD22E000021002400270077
:100120002A002D0030003300010100000401070106
:100130000A010102102020080810204010204080F1
:10014000020102010804020101020408102040809B
:100150008040201008040201800402018040201029
:100160000804020108040201010204081020408072
:100170000102040810204080000022002500280011
:100180002B002E003100340002010000050108019F
:100190000B0105050505070508080808020202020B
:1001A0000A0A080804040404010101010101010113
:1001B0000303030303030303040707070C0C0C0CDE
:1001C0000C0C0C0C020202020606060606060606C7
:1001D0000B0B0B0B0B0B0B0B00000000003E5B4FDF
:1001E0005B3E3E6B4F6B3E1C3E7C3E1C183C7E3C97
:1001F000181C577D571C1C5E7F5E1C00183C1800A5
:10020000FFE7C3E7FF0018241800FFE7DBE7FF3034
:10021000483A060E2629792926407F050507407FA2
:1002200005253F5A3CE73C5A7F3E1C1C08081C1C15
:100230003E7F14227F22145F5F005F5F06097F010B
:100240007F006689956A606060606094A2FFA294F6
:1002500008047E040810207E201008082A1C0808C4
:100260001C2A08081E101010100C1E0C1E0C303812
:100270003E3830060E3E0E06000000000000005F13
:1002800000000007000700147F147F14242A7F2A2F
:1002900012231308646236495620500008070300F1
:1002A000001C2241000041221C002A1C7F1C2A083D
:1002B000083E0808008070300008080808080000A0
:1002C00060600020100804023E5149453E00427F14
:1002D000400072494949462141494D331814127F63
:1002E0001027454545393C4A494931412111090703
:1002F0003649494936464949291E00001400000084
:100300004034000000081422411414141414004155
:1003100022140802015909063E415D594E7C121112
:10032000127C7F494949363E414141227F4141414A
:100330003E7F494949417F090909013E41415173C5
:100340007F0808087F00417F41002040413F017F36
:10035000081422417F404040407F021C027F7F04FE
:1003600008107F3E4141413E7F090909063E415147
:10037000215E7F09192946264949493203017F0137
:10038000033F4040403F1F2040201F3F4038403F38
:10039000631408146303047804036159494D43004E
:1003A0007F4141410204081020004141417F040285
:1003B000010204404040404000030708002054541C
:1003C00078407F28444438384444442838444428FA
:1003D0007F385454541800087E090218A4A49C784D
:1003E0007F0804047800447D40002040403D007FA9
:1003F0001028440000417F40007C047804787C0889
:100400000404783844444438FC182424181824245C
:1004100018FC7C08040408485454542404043F4441
:10042000243C4040207C1C2040201C3C4030403C70
:1004300044281028444C9090907C4464544C4400D0
:100440000836410000007700000041360800020134
:100450000204023C2623263C1EA1A161123A404020
:10046000207A38545455592155557941225454789D
:1004700042215554784020545579400C1E52721236
:1004800039555555593954545459395554545800BF
:1004900000457C410002457D420001457C407D12C3
:1004A00011127DF0282528F07C5455450020545425
:1004B0007C547C0A097F4932494949323A444444D0
:1004C0003A324A4848303A4141217A3A424020780B
:1004D000009DA0A07D3D4242423D3D4040403D3C0C
:1004E00024FF2424487E4943662B2FFC2F2BFF0931
:1004F00029F620C0887E0903205454794100004425
:100500007D413048484A32384040227A007A0A0A0F
:10051000727D0D19317D2629292F28262929292682
:1005200030484D4020380808080808080808382FC7
:1005300010C8ACBA2F102834FA00007B0000081451
:100540002A142222142A14085500550055AA55AA27
:1005500055AAFF55FF55FF000000FF00101010FFC7
:1005600000141414FF001010FF00FF1010F010F022
:10057000141414FC001414F700FF0000FF00FF1413
:1005800014F404FC141417101F10101F101F14145F
:10059000141F00101010F0000000001F10101010A9
:1005A0001F10101010F010000000FF10101010109D
:1005B00010101010FF10000000FF140000FF00FFDB
:1005C00000001F10170000FC04F414141710171477
:1005D00014F404F40000FF00F71414141414141499
:1005E000F700F7141414171410101F101F1414140C
:1005F000F4141010F010F000001F101F0000001F76
:1006000014000000FC140000F010F01010FF10FFA8
:10061000141414FF141010101F00000000F010FF3D
:10062000FFFFFFFFF0F0F0F0F0FFFFFF0000000021
:1006300000FFFF0F0F0F0F0F3844443844FC4A4AA5
:100640004A347E02020606027E027E02635549415A
:10065000633844443C04407E201E2006027E020291
:1006600099A5E7A5991C2A492A1C4C7201724C30A5
:100670004A4D4D303048784830BC625A463D3E497C
:100680004949007E0101017E2A2A2A2A2A44445F20
:10069000444440514A444040444A51400000FF0114
:1006A00003E080FF000008086B6B08361236243622
:1006B000060F090F06000018180000001010003087
:1006C00040FF0101001F01011E00191D1712003C0F
:1006D0003C3C3C00000000000000200023002600FD
:1006E00029002C002F003200000100000301060148
:1006F000090100000A0B02090C0D0E080703040192
:1007000000000000000000000000000000000000E9
:1007100000000000000000000000000000001211B6
:1007200010000000000000000000000000000000B9
:1007300000000000000000004935423511241FBEB2
:10074000CFEFD1E2DEBFCDBF00E00CBF1AE0A0E0EA
:10075000B2E0EEE2F7E700E00BBF02C007900D92B7
:10076000A63AB107D9F721E1A6EABAE001C01D9285
:10077000AE3DB207E1F713E0CDE9D3E000E006C0FB
:1007800021970109802FFE010E943C39CC39D10705
:1007900080E00807A9F70E94D5310C94863B30CC45
:1007A0004F925F926F927F928F929F92AF92BF9281
:1007B000CF92DF92EF92FF920F931F93CF93DF932D
:1007C000CDB7DEB7CB56D2400FB6F894DEBF0FBE22
:1007D000CDBF60E088E791E10E94BD1CA0E0B0E0E1
:1007E0009C01AD012954324141095109A2E3B0E015
:1007F0000E94ED37ABEBCA2EA8E4DA2EE12CF12CE7
:10080000A70196010E94D1373093ED0A2093EC0A9C
:1008100061E088E791E10E94BD1CA0E0B0E09C018E
:10082000AD012954324141095109A2E3B0E00E94CF
:10083000ED37A70196010E94D1373093EB0A209340
:10084000EA0A62E088E791E10E94BD1CA0E0B0E006
:100850009C01AD012954324141095109A2E3B0E0A4
:100860000E94ED37A70196010E94D1373093E90A23
:100870002093E80A63E088E791E10E94BD1CAC0187
:1008800060E070E09A01AB012954324141095109FD
:10089000AAEAB5E00E94ED37A70196010E94D13780
:1008A0003093FB0A2093FA0A60E083E791E10E940B
:1008B000BD1CA0E0B0E09C01AD01235233414109D1
:1008C0005109A0E1B7E20E94ED372CE539E440E0A0
:1008D00050E00E94D1373093E70A2093E60A61E0A6
:1008E00083E791E10E94BD1CA0E0B0E09C01AD0156
:1008F0002C543D4141095109AAE0B0E00E94ED3776
:100900002CED35E040E050E00E94D137DA01C9011A
:100910000A96A11DB11D9093E50A8093E40A62E056
:1009200083E791E10E94BD1CA0E0B0E09C01AD0115
:100930002858384141095109A0E9B1E00E94ED373A
:1009400028EA3AE240E050E00E94D1373093E30ACF
:100950002093E20A60E08EE691E10E94BD1CA0E0D7
:10096000B0E09C01AD012C55324141095109AEE185
:10097000B0E00E94ED37B8EACB2EB8E4DB2EE12CD4
:10098000F12CA70196010E94D1373093E10A209300
:10099000E00A61E08EE691E10E94BD1CAC0160E0DE
:1009A00070E09A01AB012C55324141095109AEE189
:1009B000B0E00E94ED37A70196010E94D137309335
:1009C000CC0A2093CB0A62E08EE691E10E94BD1C26
:1009D000A0E0B0E09C01AD0123523341410951092F
:1009E000A0EDB7E00E94ED3721EE37E440E050E0A3
:1009F0000E94D1373093160B2093150B60E089E6E7
:100A000091E10E94BD1C9093DF0A8093DE0A61E0B1
:100A100089E691E10E94BD1C9093CA0A8093C90A9D
:100A200061E089E00E9430291092190B80931A0B23
:100A300080E19DE00E949B1ABC01990F880B990BE5
:100A40000E94BE3620E030E040E251E40E948D3842
:100A50006093D20A7093D30A8093D40A9093D50AF4
:100A60000E9447288091831190918411A091851153
:100A7000B09186118093DA0A9093DB0AA093DC0A86
:100A8000B093DD0A8091871190918811A09189110E
:100A9000B0918A118093D60A9093D70AA093D80A6E
:100AA000B093D90A60E087E391E10E94EE2591E0DE
:100AB000811190E09093D10A61E087E391E10E9477
:100AC000EE2591E0811190E09093D00A62E087E3F7
:100AD00091E10E94EE2591E0811190E09093CF0A80
:100AE00063E087E391E10E94EE2591E0811190E0BF
:100AF0009093CE0A64E087E391E10E94EE2591E0B5
:100B0000811190E09093010B65E087E391E10E94F1
:100B1000EE2591E0811190E09093000B66E087E371
:100B200091E10E94EE2591E0811190E09093C80A36
:100B300067E087E391E10E94EE2591E0811190E06A
:100B40009093C70A60E08EE191E10E94EE2591E06A
:100B5000811190E09093C60A61E08EE191E10E94DC
:100B6000EE2591E0811190E09093C50A83E00E9408
:100B700011238093090B82E00E9411238093CD0AF8
:100B800084E00E9411238093C40A4CEE5AE060E294
:100B900077E080911A0F90911B0F0E94C22D4AEEB0
:100BA0005AE069E277E080911A0F90911B0F0E9442
:100BB000C22D48EE5AE062E377E080911A0F9091DF
:100BC0001B0F0E94C22D4AEF5AE06BE377E0809141
:100BD0001A0F90911B0F0E94C22D46EE5AE064E45A
:100BE00077E080911A0F90911B0F0E94C22D44EE66
:100BF0005AE06DE477E080911A0F90911B0F0E94EC
:100C0000C22D42EE5AE066E577E080911A0F90918E
:100C10001B0F0E94C22D42ED5AE06AE577E08091F9
:100C20001A0F90911B0F0E94952D4AED5AE06AE62B
:100C300077E080911A0F90911B0F0E94952D46ED41
:100C40005AE067E777E080911A0F90911B0F0E949E
:100C5000952D41ED5AE06FE777E080911A0F909162
:100C60001B0F0E94682D40ED5AE066E877E0809106
:100C70001A0F90911B0F0E94682D4FEC5AE06EE8FE
:100C800077E080911A0F90911B0F0E94682D4EEC17
:100C90005AE068E977E080911A0F90911B0F0E944B
:100CA000682D41E05BE062EA77E080911A0F909155
:100CB0001B0F0E94682D40E05BE061EB77E08091C4
:100CC0001A0F90911B0F0E94682D49E05BE060ECC9
:100CD00077E080911A0F90911B0F0E94682D4DECC8
:100CE0005AE066EC77E080911A0F90911B0F0E94FA
:100CF000682D9091C30A8091090B9817C9F08091D3
:100D0000C20A8F5F8093C20A982F917080FF0CC037
:100D100090930A0B0E94DC236093050B7093060BE3
:100D20008093070B9093080B8091090B8093C30A63
:100D30009091C10A8091CD0A9817B1F08091C00AB4
:100D40008F5F8093C00A80FF0AC00E94DC236093FB
:100D5000BC0A7093BD0A8093BE0A9093BF0A80912B
:100D6000CD0A8093C10A1DC00E94DC230091BC0AF9
:100D70001091BD0A2091BE0A3091BF0ADC01CB015F
:100D8000801B910BA20BB30B893B9B40A105B105C6
:100D900008F4C4C78091CD0A813009F0BFC78093A1
:100DA000170B9091BB0A8091000B9817B1F08091BE
:100DB000BA0A8F5F8093BA0A80FD0AC00E94DC23C2
:100DC0006093B60A7093B70A8093B80A9093B90AF1
:100DD0008091000B8093BB0A1DC00E94DC23009110
:100DE000B60A1091B70A2091B80A3091B90ADC010D
:100DF000CB01801B910BA20BB30B813A9F40A10545
:100E0000B10508F48EC78091000B81118AC781E07B
:100E10008093040B9091B50A8091010B9817B1F063
:100E20008091B40A8F5F8093B40A80FD0AC00E944B
:100E3000DC236093B00A7093B10A8093B20A909356
:100E4000B30A8091010B8093B50A1CC00E94DC2379
:100E50000091B00A1091B10A2091B20A3091B30A00
:100E6000DC01CB01801B910BA20BB30B813A9F409D
:100E7000A105B10528F08091010B882309F454C71E
:100E80001092030B9091AF0A8091D00A9817D1F17C
:100E90008091AE0A8F5F8093AE0A80FF15C00E94DA
:100EA000DC236093AA0A7093AB0A8093AC0A9093F8
:100EB000AD0A0E94DC236093100B7093110B80939A
:100EC000120B9093130B19C011E010930A0B0E94A0
:100ED000DC236093050B7093060B8093070B9093B4
:100EE000080B10930F0B0E94DC2360930B0B709385
:100EF0000C0B80930D0B90930E0B8091D00A809376
:100F0000AF0A1DC00E94DC230091AA0A1091AB0A0F
:100F10002091AC0A3091AD0ADC01CB01801B910B12
:100F2000A20BB30B813D9740A105B10508F400C7A2
:100F30008091D00A813009F0FBC68093140B909108
:100F4000A90A8091CF0A9817F9F08091A80A8F5FBB
:100F50008093A80A80FD0DC081E080930A0B0E9457
:100F6000DC236093050B7093060B8093070B909323
:100F7000080B0E94DC237093A70A6093A60A809155
:100F8000CF0A8093A90A1BC00E94DC23C090A60A46
:100F9000D090A70AE12CF12CDC01CB018C199D0922
:100FA000AE09BF09813A9F40A105B10508F4C3C647
:100FB0008091CF0A813009F0BEC68093020B0E9457
:100FC000DC230091EE0A1091EF0A2091F00A309193
:100FD000F10ADC01CB01801B910BA20BB30B8D3D01
:100FE0009540A105B10508F458C40E94DC23609324
:100FF000EE0A7093EF0A8093F00A9093F10A8091C1
:101000001A0F90911B0F23E73CE03A8329831C823F
:101010001B82BE016F5F7F4F0E94772E6FEC77E0DF
:1010200086ED9BE00E94322D8091EC0A9091ED0AB2
:101030000E9429290E9481270E9481270E948127DE
:1010400067ED77E086ED9BE00E94322D8091EA0A01
:101050009091EB0A0E9429290E9481270E948127F2
:101060000E9481276FED77E086ED9BE00E94322D94
:101070008091E80A9091E90A0E9429290E9481271B
:101080000E9481270E94812767EE77E086ED9BE032
:101090000E94322D8091FA0A9091FB0A0E94292920
:1010A0000E9481270E9481270E9481276FEE77E0AE
:1010B00086ED9BE00E94322D8091E60A9091E70A2E
:1010C0000E9429290E9481270E9481270E9481274E
:1010D00067EF77E086ED9BE00E94322D8091E40A75
:1010E0009091E50A0E9429290E9481270E94812768
:1010F0000E9481276FEF77E086ED9BE00E94322D02
:101100008091E20A9091E30A0E9429290E94812796
:101110000E9481270E94812767E078E086ED9BE0AE
:101120000E94322D8091E00A9091E10A0E942929C3
:101130000E9481270E9481270E9481276FE078E02A
:1011400086ED9BE00E94322D8091DE0A9091DF0AAD
:101150000E9429290E9481270E9481270E948127BD
:1011600067E178E086ED9BE00E94322D62E08EE63A
:1011700091E10E94BD1CA0E0B0E09C01AD012352B2
:10118000334141095109A4E6B0E00E94ED3721EE58
:1011900037E440E050E00E94D13769017A0157FFFF
:1011A0000EC06DE286ED9BE00E94C42B44275527BC
:1011B000BA014C195D096E097F092AE003C02AE0D3
:1011C000B701A60186ED9BE00E94E02B0E948127DB
:1011D0000E9481270E9481276FE178E086ED9BE0E5
:1011E0000E94322D4091DA0A5091DB0A6091DC0AAC
:1011F0007091DD0A22E086ED9BE00E94422C0E9465
:1012000081270E9481270E94812768E278E086ED8D
:101210009BE00E94322D4091D60A5091D70A6091EE
:10122000D80A7091D90A22E086ED9BE00E94422CF8
:101230000E9481270E9481270E94812761E378E034
:1012400086ED9BE00E94322D6AE378E086ED9BE01C
:101250000E94322D4091D20A5091D30A6091D40A53
:101260007091D50A22E086ED9BE00E94422C6AE351
:1012700078E086ED9BE00E94322D0E9481270E943B
:1012800081270E9481276CE378E086ED9BE00E9435
:10129000322D6091D10A86ED9BE00E94282C0E949D
:1012A00081270E9481270E94812765E478E086EDEE
:1012B0009BE00E94322D6091D00A86ED9BE00E9457
:1012C000282C0E9481270E9481270E9481276EE49A
:1012D00078E086ED9BE00E94322D6091CF0A86ED8A
:1012E0009BE00E94282C0E9481270E9481270E9457
:1012F000812767E578E086ED9BE00E94322D6091C2
:10130000CE0A86ED9BE00E94282C0E9481270E9435
:1013100081270E94812760E678E086ED9BE00E94AD
:10132000322D6091010B86ED9BE00E94282C0E94DB
:1013300081270E9481270E94812769E678E086ED57
:101340009BE00E94322D6091000B86ED9BE00E9495
:10135000282C0E9481270E9481270E94812762E712
:1013600078E086ED9BE00E94322D6091090B86EDBE
:101370009BE00E94282C0E9481270E9481270E94C6
:1013800081276BE778E086ED9BE00E94322D60912B
:10139000CD0A86ED9BE00E94282C0E9481270E94A6
:1013A00081270E94812764E878E086ED9BE00E9417
:1013B000322D6091C91186ED9BE00E94282C0E947D
:1013C00081270E9481270E9481276DE878E086EDC1
:1013D0009BE00E94322D6091C71186ED9BE00E9438
:1013E000282C0E9481270E9481270E94812766E97C
:1013F00078E086ED9BE00E94322D6091C81186ED69
:101400009BE00E94282C0E9481270E9481270E9435
:1014100081276FE978E086ED9BE00E94322D609194
:10142000C61186ED9BE00E94282C0E9481270E9415
:1014300081270E94812768EA78E086ED9BE00E9480
:10144000322D60E086ED9BE00E94282C0E948127CF
:101450000E9481270E94812780E094E0E6E1F2E08B
:10146000DF019C011D9221503040E1F781E0809323
:101470009F1181E090E090939E1180939D11909335
:101480009C1180939B1110929811109297111092B9
:101490009A111092991161EB78E08BE891E10E942A
:1014A000322D8091EC0A9091ED0A0E942E2C109220
:1014B00098111092971149E0A42EB12CB0929A1174
:1014C000A092991164EB78E08BE891E10E94322DB3
:1014D0008091EA0A9091EB0A0E942E2C10929811AA
:1014E0001092971152E1C52ED12CD0929A11C09230
:1014F000991167EB78E08BE891E10E94322D8091A1
:10150000E80A9091E90A0E942E2C109298111092EC
:1015100097116BE1E62EF12CF0929A11E09299115D
:101520006AEB78E08BE891E10E94322D8091FA0A13
:101530009091FB0A0E942E2C1092981110929711F4
:1015400074E2472E512C50929A11409299116DEBF2
:1015500078E08BE891E10E94322D8091E60A90912B
:10156000E70A0E942E2C1092981110929711EDE22A
:101570006E2E712C70929A116092991160EC78E045
:101580008BE891E10E94322D8091E40A9091E50A66
:101590000E942E2C1092981110929711F6E38F2E24
:1015A000912C90929A118092991163EC78E08BE8DB
:1015B00091E10E94322D8091E20A9091E30A0E940B
:1015C0002E2C0CE210E010939811009397111092BA
:1015D0009A111092991166EC78E08BE891E10E94E3
:1015E000322D8091E00A9091E10A0E942E2C1093F6
:1015F000981100939711B0929A11A092991169ECE9
:1016000078E08BE891E10E94322D8091CB0A909195
:10161000CC0A0E942E2C1093981100939711D0920F
:101620009A11C09299116CEC78E08BE891E10E94DC
:10163000322D8091150B9091160B0E942E2C109339
:10164000981100939711F0929A11E09299116FEC12
:1016500078E08BE891E10E94322D8091DE0A909132
:10166000DF0A0E942E2C109398110093971150922C
:101670009A114092991162ED78E08BE891E10E9415
:10168000322D8091C90A9091CA0A0E942E2C109383
:1016900098110093971170929A116092991165EDCB
:1016A00078E08BE891E10E94322D6091D10A8BE8BD
:1016B00091E10E94282C6091D00A8BE891E10E9470
:1016C000282C6091CF0A8BE891E10E94282C609130
:1016D000CE0A8BE891E10E94282C6091000B8BE8E8
:1016E00091E10E94282C6091010B8BE891E10E940E
:1016F000282C6091C80A8BE891E10E94282C609107
:10170000C70A8BE891E10E94282C68ED78E08BE80D
:1017100091E10E94322D6091C60A8BE891E10E940E
:10172000282C6091C50A8BE891E10E94282C109327
:1017300098110093971190929A11809299116AEDE5
:1017400078E08BE891E10E94322D6091C9118BE81D
:1017500091E10E94282C6091C7118BE891E10E94D1
:10176000282C6091C8118BE891E10E94282C60918F
:10177000C6118BE891E10E94282C60E08BE891E192
:101780000E94282C68ED78E08BE891E10E94322DD0
:101790006091090B8BE891E10E94282C6091CD0AA1
:1017A0008BE891E10E94282C6091C40A8BE891E1BA
:1017B0000E94282C08E510E01093981100939711CF
:1017C00010929A111092991162ED78E08BE891E1F4
:1017D0000E94322D6091DA0A7091DB0A8091DC0A56
:1017E0009091DD0A41E050E00E941F2D1093981166
:1017F00000939711B0929A11A09299116DED78E033
:101800008BE891E10E94322D6091D60A7091D70A3F
:101810008091D80A9091D90A41E050E00E941F2D92
:101820001093981100939711D0929A11C092991128
:1018300060EE78E08BE891E10E94322D4091020247
:1018400050910302052E000C660B770B21E08BE80C
:1018500091E10E94E02B63EE78E08BE891E10E9439
:10186000CB2B1093981100939711F0929A11E0925C
:10187000991166EE78E08BE891E10E94322D60913B
:10188000D20A7091D30A8091D40A9091D50A42E08D
:1018900050E00E941F2D0E94D2270E94DC2300915D
:1018A000F60A1091F70A2091F80A3091F90ADC0142
:1018B000CB01801B910BA20BB30B89389341A1057F
:1018C000B105B8F10E94DC236093F60A7093F70A21
:1018D0008093F80A9093F90A00911C0D10911D0D48
:1018E0006FE777E0C8010E94861EFC01892B51F446
:1018F000C8010E94631EFC01892B61F08FE797E00D
:101900009383828382E090E09583848389EE98E0DC
:101910009783868380911C0D90911D0D23E73CE0F9
:101920003A8329831C821B82BE016F5F7F4F0E9416
:10193000772E0E94DC236093F20A7093F30A80935F
:10194000F40A9093F50A7E0149E0E40EF11C98E553
:10195000C92E92E0D92E20E2A22E26E0B22E8E01D0
:101960000F5F1F4F3AE0932E83E79CE00E94BC1F5D
:10197000892BA9F1FC82EB82DE82CD8218861F8240
:10198000BA82A982CF59DD4F19830883C156D2404C
:1019900083E79CE0CD59DD4F99838883C356D240BD
:1019A000CB59DD4F1882C556D240CA59DD4F188237
:1019B000C656D240C959DD4F19830883C756D24055
:1019C000C759DD4F9882C956D240CE018F599D4FDD
:1019D0000E94EF2DDC018D919C91892BB1F00E942A
:1019E000DC234090F20A5090F30A6090F40A709061
:1019F000F50ADC01CB0184199509A609B7098C32D7
:101A00009140A105B10508F4AFCF8091170B81304B
:101A100009F09DC01092170B0E94DC236B017C0122
:101A200088EE882E83E0982EA12CB12C0E94DC2316
:101A3000DC01CB018C199D09AE09BF0965EF78E087
:101A400088389341A105B10508F065C086ED9BE09B
:101A50000E94322D6AE378E086ED9BE00E94322DF1
:101A60000E94DC236C197D098E099F09A501940150
:101A70000E94F737BA01A9012AE0CE018F599D4F84
:101A80000E94432B6EEF78E0CE0101960E948B2BD3
:101A9000CB59DD4F88819981C556D240CF59DD4F52
:101AA00068807980C156D2400D811E816114710415
:101AB00009F456C10097A9F0080F191FB801CE010B
:101AC00001960E94052B882309F44AC129813A8195
:101AD0008D819E81B301820F931F0E947F3B1E83E5
:101AE0000D83CE0101960E948527CE0101960E94AA
:101AF0003E2BCE018F599D4F0E943E2B6AE378E02A
:101B000086ED9BE00E94322D0E9481270E94812752
:101B10000E9481278BCF86ED9BE00E94322D6AE3E5
:101B200078E086ED9BE00E94322D64E279E086ED5C
:101B30009BE00E94322D6AE378E086ED9BE00E94F4
:101B4000322D0E9481270E9481270E948127809147
:101B50000402909105020197D1F560910202709103
:101B60000302CB01C659DD4F6883CA56D240C5591E
:101B7000DD4F7883CB56D2400E949A2A8091150B74
:101B80009091160BC659DD4F6881CA56D240C5598F
:101B9000DD4F7881CB56D24068177907A0F49C01BD
:101BA000261B370B44E6429FC001439F900D112432
:101BB0000E9429396F3071050CF0CBC310920502D9
:101BC00010920402C6C39B01281B390BEBCF8091F6
:101BD000140B813009F086C065E379E0CE018F599E
:101BE0009D4F0E948B2B6EE379E0CE0101960E94FF
:101BF0008B2BBE016F597D4FCE0101960E94D530CF
:101C0000CE0101960E943E2BCE018F599D4F0E941E
:101C10003E2B67E579E0CE0101960E948B2B60E0B8
:101C2000CE0101960E941D31CE0101960E943E2BED
:101C300065E679E0CE0101960E948B2B61E0CE0132
:101C400001960E941D31CE0101960E943E2B64E751
:101C500079E0CE0101960E948B2B61E0CE010196C6
:101C60000E941D31CE0101960E943E2B65EF78E067
:101C700086ED9BE00E94322D6AE378E086ED9BE0E2
:101C80000E94322D0E94DC230091100B1091110B49
:101C90002091120B3091130B601B710B820B930B75
:101CA00028EE33E040E050E00E94F737BA01A90186
:101CB0002AE0CE0101960E94432BCE0101960E949C
:101CC0008527CE0101960E943E2B6AE378E086EDDF
:101CD0009BE00E94322D0E9481270E9481270E9452
:101CE000812737C380910F0B813009F03EC00E94DD
:101CF000DC2300910B0B10910C0B20910D0B3091FC
:101D00000E0BDC01CB01801B910BA20BB30B8036B9
:101D10009A4EA105B10508F44CC227C01092170BCA
:101D200040C81092040B76C881E08093030BAAC8C8
:101D30001092140B04C90E94DC23DC01CB018C1926
:101D40009D09AE09BF09813A9F40A105B10508F47C
:101D500036C98091CF0A811132C91092020B2FC966
:101D6000CE0101960E942C2BBCCE90910A0B809143
:101D7000090B913009F065C0813009F0BAC10E94A9
:101D8000DC230091050B1091060B2091070B30917D
:101D9000080BDC01CB01801B910BA20BB30B803134
:101DA0009742A105B10518F588EB9BE00E949A2A9D
:101DB00067E579E0CE0101960E948B2B60E0CE01B1
:101DC00001960E941D31CE0101960E943E2B65E6D0
:101DD00079E0CE0101960E948B2B60E0CE01019646
:101DE0000E941D31CE0101960E943E2B20C064E767
:101DF00079E0CE0101960E948B2B60E0CE01019626
:101E00000E941D31CE0101960E943E2B6FEC79E0BD
:101E1000CE0101960E948B2B60E0CE0101960E94BC
:101E20001D31CE0101960E943E2B10920A0B65E3F4
:101E300079E0CE018F599D4F0E948B2B68ED79E0A0
:101E4000A3C1911156C1813009F053C18091040B97
:101E5000813049F08091030B813029F08091020B91
:101E6000813009F0B5C067E579E0CE0101960E94A6
:101E70008B2B61E0CE0101960E941D31CE010196AF
:101E80000E943E2B65E679E0CE0101960E948B2BE5
:101E900061E0CE0101960E941D31CE0101960E94A3
:101EA0003E2B64E779E0CE0101960E948B2B61E026
:101EB000CE0101960E941D31CE0101960E943E2B5B
:101EC0006FEC79E0CE0101960E948B2B61E0CE0190
:101ED00001960E941D31CE0101960E943E2B8091F9
:101EE000040B65E379E0813029F08091030B8130A8
:101EF00009F066C0CE018F599D4F0E948B2B66EF73
:101F000079E0CE0101960E948B2BBE016F597D4F67
:101F1000CE0101960E94D530CE0101960E943E2B43
:101F2000CE018F599D4F0E943E2B68EB7BE080E0F5
:101F300090E00E94A42365E379E0CE018F599D4F84
:101F40000E948B2B68E07AE0CE0101960E948B2BD9
:101F5000BE016F597D4FCE0101960E94D530CE0152
:101F600001960E943E2BCE018F599D4F0E943E2B21
:101F700068EB7BE080E090E00E94A42381E0809306
:101F80000A0B0E94DC236093050B7093060B809371
:101F9000070B9093080B64E087E391E10E94EE2524
:101FA00091E0811190E09093010B65E087E391E16E
:101FB0000E94EE2591E0811190E09093000BC9C141
:101FC000CE018F599D4F0E948B2B6DE17AE0DCC0D2
:101FD0008111BFC165E379E0CE018F599D4F0E9409
:101FE0008B2B6CE37AE0CE0101960E948B2BBE0115
:101FF0006F597D4FCE0101960E94D530CE010196DA
:102000000E943E2BCE018F599D4F0E943E2B009186
:10201000020210910302C8010E949A2A0E94DC2346
:10202000C090FC0AD090FD0AE090FE0AF090FF0AF2
:10203000AB01BC014C195D096E097F09809100025A
:1020400090910102092E000CAA0BBB0B8417950777
:10205000A607B70708F07DC10E94DC236093FC0A45
:102060007093FD0A8093FE0A9093FF0A8091FA0A0A
:102070009091FB0A803743E0940730F08F3853E0AB
:102080009507E0F4C80132C020E733E0D901A81B6E
:10209000B90BA536B10518F081E090E002C084EFDD
:1020A00091E09093010280930002C8010197803A69
:1020B000BFE09B0708F04DC1049714C08E589340B1
:1020C000CD9718F081E090E002C084EF91E090930A
:1020D000010280930002003AEFE01E0708F039C1C8
:1020E000C801059690930302809302020E949A2AE7
:1020F00030C181112EC180ED97E00E949A2A67E5D8
:1021000079E0CE0101960E948B2B61E0CE01019611
:102110000E941D31CE0101960E943E2B65E679E0BA
:10212000CE0101960E948B2B61E0CE0101960E94A8
:102130001D31CE0101960E943E2B64E779E0CE016D
:1021400001960E948B2B61E0CE0101960E941D3109
:10215000CE0101960E943E2B6FEC79E0CE010196F4
:102160000E948B2B61E0CE0101960E941D31CE01B1
:1021700001960E943E2B65E379E0CE018F599D4F79
:102180000E948B2B6DE47AE0CE0101960E948B2B8E
:10219000BE016F597D4FCE0101960E94D530CE0110
:1021A00001960E943E2BCE018F599D4F0E943E2BDF
:1021B000D0C065EF78E086ED9BE00E94322D6AE3A7
:1021C00078E086ED9BE00E94322DC0900B0BD09002
:1021D0000C0BE0900D0BF0900E0B0E94DC2320E620
:1021E000C20E2AEED21EE11CF11CA7019601261B8D
:1021F000370B480B590BCA01B90128EE33E040E018
:1022000050E00E94F737BA01A9012AE0CE010196F9
:102210000E94432BCE0101960E948527CE01019694
:102220000E943E2B6AE378E086ED9BE00E94322D0F
:102230000E9481270E9481270E94812788EB9BE0D2
:102240000E949A2A8091150B9091160B803991402B
:10225000B8F167E579E0CE0101960E948B2B60E032
:10226000CE0101960E941D31CE0101960E943E2BA7
:1022700064E779E0CE0101960E948B2B60E0CE01ED
:1022800001960E941D31CE0101960E943E2B65E60B
:1022900079E0CE0101960E948B2B60E0CE01019681
:1022A0000E941D31CE0101960E943E2B65E379E02C
:1022B000CE018F599D4F0E948B2B62E879E064CF4D
:1022C00065E379E0CE018F599D4F0E948B2B61EA27
:1022D00079E0CE0101960E948B2BBE016F597D4F94
:1022E000CE0101960E94D530CE0101960E943E2B70
:1022F000CE018F599D4F0E943E2B67E579E0CE01BC
:1023000001960E948B2B61E0CE0101960E941D3147
:10231000CE0101960E943E2B65E679E0CE01019642
:102320000E948B2B61E0CE0101960E941D31CE01EF
:1023300001960E943E2B64E779E0CE0101960E944F
:102340008B2B61E0CE0101960E941D31CE010196DA
:102350002DCFC559DD4F0FB6F894DEBF0FBECDBFF0
:10236000DF91CF911F910F91FF90EF90DF90CF9071
:10237000BF90AF909F908F907F906F905F904F90A5
:1023800008950F931F93CF93DF93DC01FB015596C4
:102390008C915597823081F0833019F1813051F55D
:1023A00014968D919C911597BC01641B750BAB0124
:1023B00041505109BF0181C014966D917C911597D0
:1023C000CB018E1B9F0BFC0116968D919C9117974C
:1023D000BC01641B750BAB0141505109E21BF30BAF
:1023E00009C016966D917C9117976E1B7F0B621B2F
:1023F000730B63C057FD1CC116968D919C91179766
:10240000481759070CF014C1F7FF04C02E0F3F1FE7
:10241000E0E0F0E014968D919C911597BF01620F5A
:10242000731F861797071CF49C012E1B3F0B121677
:1024300013060CF0FDC0CA0157FD079663E09595A1
:1024400087956A95E1F79695982F882797958795B0
:10245000E80FF91FEA5EFD4F4770552781E090E0D5
:1024600001C0880F4A95EAF7482F0130110541F065
:1024700088F00230110509F0DBC02E0F3F1F15C098
:102480002E0F3F1FE217F30709F4D2C08081842B7F
:102490008193F8CF80952E0F3F1FE217F30709F4C1
:1024A000C7C0908198239193F8CFE217F30709F4FE
:1024B000BFC0808184278193F8CF57FDB9C014969F
:1024C0008D919C911597481759070CF0B1C077FF73
:1024D00004C0260F371F60E070E016968D919C9126
:1024E0001797FB01E20FF31F8E179F071CF49C0147
:1024F000261B370B121613060CF09AC0A22F862F3C
:1025000086958695869590E8899F400D511D1124EA
:10251000FA01EA5EFD4F6770A9F198E0961B492F1A
:1025200050E0EA01C65DD94F8881291790F4421B1B
:1025300051092FEF30E002C0359527954A95E2F713
:1025400082230130110541F068F00230110589F055
:102550006FC00130110519F42081822B0CC00130AD
:10256000110520F480952081822305C002301105D9
:1025700031F4208182278083A91708F459C0A91B50
:10258000E058FF4FA83048F10230110559F4EF012F
:102590008A2F988190959883C058DF4F8850883053
:1025A000C0F731C081E00130110509F080E081956C
:1025B000EF019A2F8883C058DF4F98509830D0F79A
:1025C00088EF8A0F86958695869560E8869FE00D50
:1025D000F11D1124E058FF4FA770AA2349F1B0E084
:1025E000AE5DB94F8C910130110529F038F0023001
:1025F0001105D9F01DC09081892B03C08095908171
:102600008923808315C088EF8A0F869586958695E5
:1026100070E8879FE00DF11D1124E058FF4FA7706F
:1026200039F0B0E0AE5DB94F8C9190818927E9CF48
:10263000DF91CF911F910F910895FC0177FD9AC012
:1026400080859185681779070CF094C057FD92C07A
:1026500082859385481759070CF08CC08589823094
:1026600009F07CC084819581DC01A61BB70BBD01FC
:102670006150710986819781FC01E41BF50BAF0164
:10268000415051090AC0813041F484819581841BF5
:10269000950BAB01BC01615071092130310529F066
:1026A00008F122303105E1F10895FA0157FD37961E
:1026B000A3E0F595E795AA95E1F7F695FE2FEE27AD
:1026C000F795E7956E0F7F1FFB01EA5EFD4F4770A0
:1026D000552781E090E001C0880F4A95EAF7908184
:1026E000892B3AC0FA0157FD379623E0F595E79517
:1026F0002A95E1F7F695FE2FEE27F795E7956E0FF1
:102700007F1FFB01EA5EFD4F4770552781E090E097
:1027100001C0880F4A95EAF78095908189231CC0F3
:10272000FA0157FD379683E0F595E7958A95E1F72D
:10273000F695FE2FEE27F795E7956E0F7F1FFB01AD
:10274000EA5EFD4F4770552781E090E001C0880F99
:102750004A95EAF79081892780830895833009F0AC
:1027600092CF86819781861B970BBA01AC014150AD
:10277000510993CF08950895FC016370658B84819E
:10278000958126813781613039F0633029F0918756
:1027900080873387228708953187208793878287B0
:1027A00008952F923F924F925F926F927F928F92F5
:1027B0009F92AF92BF92CF92DF92EF92FF920F93D0
:1027C0001F93CF93DF93CDB7DEB76C970FB6F89416
:1027D000DEBF0FBECDBF9C8F8B8F5B011A011F83A5
:1027E0000E833701C982DC0158964D915C9159974F
:1027F0004115510509F0E5C018968D919C911997E6
:10280000681779070CF0CAC11A968D919C911B9795
:10281000281639060CF0C2C18C2C912CFB0136E035
:10282000C39EE00DF11D1124FB87EA871E161F06CB
:102830000CF0B4C1C40133E0880F991F3A95E1F759
:102840009D878C87820D931D181619060CF0A6C162
:1028500057968C91811103C0203B08F02F5FAB8D00
:10286000BC8DED91FC9111970284F385E02DCD0193
:102870002A8F19952A8DB5E02B9F90011124F5011F
:102880003596FF87EE87BB82AA822501A9014A19E6
:102890005B09598B488BC10108969B8B8A8BE88911
:1028A000F989E40DF51DE852FE4F94919887610176
:1028B0003D822C82A885A0FF13C0AB8DBC8DED910D
:1028C000FC91B981B13031F40484F585E02D2E817D
:1028D0003F8116C00684F785E02DEE80FF801AC088
:1028E000EE81FF816E167F06F1F0AB8DBC8DED9110
:1028F000FC91B981B13051F40484F585E02D930148
:10290000A601B2018B8D9C8D19950DC00684F785AB
:10291000E02D7301840194014C815D816A817B818A
:102920008B8D9C8D1995E885E695E887FFEFCF1A8A
:10293000DF0A2C813D81280D391D3D832C834A8976
:102940005B89C416D50609F0B5CF5FEF451A550A65
:102950008A819B81880D991D9B838A83AE85BF8563
:102960004A165B0609F09BCFEE81FF816E167F064B
:1029700009F4F2C0EB8DFC8DA081B181F981F130B9
:1029800079F4B5016B5F7F4F5096ED91FC915197B3
:10299000830128E030E0A1018B8D9C8D1995DCC06E
:1029A0006A857B85681979091E96ED91FC911F97C0
:1029B00073010C851D859401A1018B8D9C8D19954A
:1029C000CBC0FA0134969491329765917491291B8A
:1029D000CB01B7E02B9F800D911D1124FA012591A9
:1029E00034913B8B2A8BFC01459154915B834A8344
:1029F000FC013296C490319654915E8732961491C0
:102A00003196D4908981823058F0612E012E000CCD
:102A10007708AD2D0D2C000CBB0BB987A88704C01F
:102A200019861886612C712CAB8DBC8DED91FC91B3
:102A300011970284F385E02DCD011995B9818B2E74
:102A4000912C689CC001699C900D789C900D11247C
:102A5000FC01EA0DFB1DFD87EC871C82712C612CAB
:102A6000E12F110FFF0B95012E0F3F1F3B872A8788
:102A7000AC0CB11CA5014E0F5F1F5F8B4E8BC101CB
:102A80008D0D911DD7FC9A95998F888F4E85641670
:102A900008F062C0862D90E048855985480F591F7F
:102AA000489D9001499D300D589D300D1124D9014C
:102AB000A20DB31DB98BA88BAA84BB844C845D8402
:102AC000DC80BA85DB1AE88DF98DE80FF91FFD8BE4
:102AD000EC8B8D2D8A0D2E893F89A216B306B9F194
:102AE000877061F48A819B810196EA89FB89AA81BA
:102AF000BB81EA0FFB1F74909B838A8377FE20C003
:102B0000AB8DBC8DED91FC91B981B13061F4048441
:102B1000F585E02D2E813F814C895D89B5018B8D36
:102B20009C8D19950DC00684F785E02DEE80FF8001
:102B30008401940148895989B2018B8D9C8D199526
:102B4000770CEFEFAE1ABE0A480C591CC2CF3C817D
:102B50003C0D3C8363949ACFAB8DBC8DED91FC9181
:102B600011970688F789E02DCD016C960FB6F89481
:102B7000DEBF0FBECDBFDF91CF911F910F91FF90B0
:102B8000EF90DF90CF90BF90AF909F908F907F900D
:102B90006F905F904F903F902F9019946C960FB666
:102BA000F894DEBF0FBECDBFDF91CF911F910F9183
:102BB000FF90EF90DF90CF90BF90AF909F908F905D
:102BC0007F906F905F904F903F902F900895AF92BD
:102BD000BF92CF92EF92FF920F931F93CF93DF9309
:102BE000EC01262F888D998D009709F03FC06A303F
:102BF00059F41D861C862C898E859F8538E0239F7D
:102C0000800D911D112440C06D3009F4A8C08E893B
:102C10008823C1F03C898C859D8546E0349F800DDA
:102C2000911D112448855985481759075CF41D8664
:102C30001C868E859F8548E0349F800D911D112450
:102C40009F878E87EA88FB88088919894E855F856A
:102C50006C857D85CC88CE01A4DD2C898C859D85F5
:102C600036E0239F800D911D112442C06A3079F413
:102C70001D861C862C89FC013696E4918E859F85E5
:102C80002E9F800D911D11249F878E8768C06D3007
:102C900009F465C0FC0134963491631708F45FC0F1
:102CA0003196E491E61708F45AC0FC013296A590DB
:102CB000B490462F50E0431B510937E0349FB001D8
:102CC000359F700D1124A60EB71EF5013296349172
:102CD0003196E491332311F0E1110DC0F5013496E2
:102CE000E4912C898C859D85E29F800D911D112496
:102CF0009D878C8734C0F501359644915E895523B4
:102D000011F16C89E32FF0E0E40FF11D47FDFA9516
:102D10006E9FD0016F9FB00D11244C855D854A0FC9
:102D20005B1FE885F985E417F5076CF41D861C86A2
:102D3000FC013696E4918E859F856E9F800D911DD6
:102D400011249F878E87EA88FB88088919894E8518
:102D50005F856C857D85CC88CE0123DDBFCF81E08A
:102D600090E0DF91CF911F910F91FF90EF90CF9066
:102D7000BF90AF9008956F927F928F929F92AF9283
:102D8000BF92CF92DF92EF92FF920F931F93CF9358
:102D9000DF93EC014B015A0169013801E881F981A7
:102DA0000284F385E02D1995E881F9810288F38981
:102DB000E02D87019601A501B401CE011995E881A6
:102DC000F981A501460D571D415051090288F3892B
:102DD000E02D9601B401CE011995E881F9810088B2
:102DE000F189E02D9301A501B401CE011995E88187
:102DF000F981C80CD91CB601615071090088F189AC
:102E0000E02D9301A501CE011995E881F98106888D
:102E1000F789E02DCE01DF91CF911F910F91FF90A7
:102E2000EF90DF90CF90BF90AF909F908F907F906A
:102E30006F901994CF92DF92EF92FF920F931F93AE
:102E4000CF93DF9300D000D0CDB7DEB76C01DC01AB
:102E5000ED91FC916217730789F4041715072CF4A0
:102E6000942F852FA801092F182F041B150B9801EB
:102E70002F5F3F4F048CF58DE02D12C04017510796
:102E800009F5261737072CF4962F872FB901292F1C
:102E9000382F261B370B2F5F3F4F068CF78DE02D09
:102EA0008701C601199526960FB6F894DEBF0FBEAE
:102EB000CDBFDF91CF911F910F91FF90EF90DF90E9
:102EC000CF9008950284F385E02D2D833E834B83BC
:102ED0005C8369837A831995D601ED91FC9104880E
:102EE000F589E02D2D813E814B815C8169817A815C
:102EF000C6011995D601ED91FC910688F789E02D60
:102F0000C60126960FB6F894DEBF0FBECDBFDF9187
:102F1000CF911F910F91FF90EF90DF90CF90199478
:102F2000EF92FF920F931F93DC01ED91FC911197AB
:102F30001A960D911C911B9718962D913C911997FB
:102F400000A0F1A1E02D7B0140E050E060E070E0E6
:102F500019951F910F91FF90EF9008954F925F92F6
:102F60006F927F928F929F92AF92BF92CF92DF9299
:102F7000EF92FF920F931F93CF93DF931F921F92B5
:102F8000CDB7DEB76C015A0139014801DC01ED9182
:102F9000FC910284F385E02D69837A831995698118
:102FA000462E7A81572E640C751CD601ED91FC914A
:102FB000461457046CF40088F189E02D87019401D0
:102FC000A501B201C6011995BFEF4B1A5B0AEDCFFF
:102FD0000688F789E02DC6010F900F90DF91CF9101
:102FE0001F910F91FF90EF90DF90CF90BF90AF9027
:102FF0009F908F907F906F905F904F901994AF92B9
:10300000BF92CF92DF92EF92FF920F931F93CF93D5
:10301000DF9300D01F92CDB7DEB75C016901DC0100
:10302000ED91FC910284F385E02D4B835C836983F1
:103030007A831995D501ED91FC9169817A819B0183
:103040002C0D3D1D215031090488F589E02D7801B2
:103050004B815C818A01C5011995D501ED91FC91E7
:103060000688F789E02DC5010F900F900F900F9003
:10307000DF91CF911F910F91FF90EF90DF90CF9054
:10308000BF90AF901994AF92BF92CF92DF92EF9220
:10309000FF920F931F93CF93DF9300D01F92CDB772
:1030A000DEB75C016901DC01ED91FC910284F385DE
:1030B000E02D4B835C8369837A831995D501ED916B
:1030C000FC914B815C81C40ED51EB1E0CB1AD108B6
:1030D0000488F589E02D7801860169817A819B0158
:1030E000C5011995D501ED91FC910688F789E02D70
:1030F000C5010F900F900F900F90DF91CF911F910E
:103100000F91FF90EF90DF90CF90BF90AF90199408
:103110000895EF92FF920F931F93DC01ED91FC91C4
:1031200000A0F1A1E02D19951F910F91FF90EF9054
:1031300008950F931F93DC01ED91FC91068CF78DA0
:10314000E02D19951F910F9108950F931F93DC01A6
:10315000ED91FC91048CF58DE02D19951F910F9147
:103160000895DC01ED91FC910084F185E02D199426
:1031700008952F923F924F925F926F927F928F921B
:103180009F92AF92BF92CF92DF92EF92FF920F93F6
:103190001F93CF93DF9300D0CDB7DEB74C017B8375
:1031A0006A836A01590117019801241B350B37FF07
:1031B00003C0319521953109C5014A815B81841B8A
:1031C000950B97FF03C091958195910951E0598323
:1031D0008217930714F019820BC09A2D8B2D58017A
:1031E000092F182F9A818B81DB82CA82C92ED82E93
:1031F0008A819B81A816B9065CF49C2D8D2D6801EF
:10320000092F182F9A818B81BB82AA82A92EB82EF2
:103210002501AA81BB814A1A5B0A38016C187D0816
:1032200077FE03C0719461947108720157FE03C068
:10323000BFEFEB1AFB0AF594E794C016D1061CF019
:103240000FEF1FEF1FC001E010E01CC0D401ED9193
:10325000FC91B9810484F585E02D9101BB23C1F077
:103260004A815B81B601C4011995E618F708F7FE9B
:1032700004C0C00ED11EE40CF51CEA81FB8131961E
:10328000FB83EA834A815B81A416B506FCF604C081
:10329000A6016A817B81E7CF0F900F900F90DF919D
:1032A000CF911F910F91FF90EF90DF90CF90BF9043
:1032B000AF909F908F907F906F905F904F903F90D6
:1032C0002F900895FC016130710559F0623071054D
:1032D00071F0672BA1F480E094E2948783878FE0FC
:1032E0000BC08BE094E29487838786E005C086E17B
:1032F00094E29487838784E0858781E0089580E065
:10330000089580E0089580E008950C94ED390C94C0
:10331000ED390C94ED39AF92BF92CF92DF92EF92DC
:10332000FF920F931F93CF93DF9300D000D0CDB7C0
:10333000DEB78C01FC01D384C484F584E2846E2D55
:1033400080E19DE004D36C2D80E19DE03FD10197A9
:10335000B9F56D2D80E19DE039D1019789F560E0E7
:1033600080E19DE096D281112BC06F2D70E080E04E
:1033700090E00E94A42346E06E2D80E19DE0F1D212
:1033800080911A0B90E02091190B821B91090697EE
:10339000B9F4CE0101967C015E0197E0A90EB11C43
:1033A000670180E19DE0C7D0F70181937F01EA15B5
:1033B000FB05B9F7C6010E94D12A9B81891711F03C
:1033C00080E04FC0CE0104960E94D12A9E818913CD
:1033D000F7CF698170E0762F66278A81680F711DAB
:1033E00080E090E00E94BC36F80126893789408D44
:1033F000518D0E948D38F80122893389448955897D
:103400000E941D379B01AC01F80166857785808994
:1034100091890E942938F80162837383848395839C
:103420006C8170E0762F66278D81680F711D80E0BA
:1034300090E00E94BC36F801268D378D40A151A145
:103440000E948D389B01AC01F801628D738D848DD3
:10345000958D0E941D37F801668377838087918759
:1034600081E026960FB6F894DEBF0FBECDBFDF9188
:10347000CF911F910F91FF90EF90DF90CF90BF9071
:10348000AF90089508950895CF93DF93FC01848150
:103490009581009751F0EF01DC01ED91FC910280E4
:1034A000F381E02D19951D821C82DF91CF91089543
:1034B000089585ED8093BC008091BC0084FDFCCF15
:1034C0001092D50B08954091610B262F30E0240F08
:1034D000311D21323105DCF42091D50B2430C9F4A3
:1034E000FC0180E090E0861758F43091610B219147
:1034F000DC01A15CB44FA30FB11D2C930196F3CF57
:103500008091610B680F6093610B80E0089581E00A
:10351000089582E008950895E091190B80911A0BA7
:10352000E81730F4F0E0E157F44F808190E008951F
:103530008FEF9FEF08959091190B80911A0B9817B8
:1035400050F4E92FF0E0E157F44F208130E09F5F25
:103550009093190B02C02FEF3FEFC901089580919E
:103560001A0B90E02091190B821B91090895CF92BC
:10357000DF92EF92FF920F931F93CF93DF937C0123
:10358000262F972F8A0180913E0B882391F0C62F1A
:10359000D72F6E01C40ED51ECC15DD0569F06991DB
:1035A000D701ED91FC910190F081E02DC7011995B3
:1035B000F3CF642F822F87DFC801DF91CF911F9156
:1035C0000F91FF90EF90DF90CF900895CF93DF930E
:1035D0001F92CDB7DEB7698320913E0B2223D1F035
:1035E00020913D0B203240F021E030E0FC0133839C
:1035F000228380E090E014C080913C0BE82FF0E043
:10360000E45EF44F998190838F5F80933C0B8093AD
:103610003D0B04C061E0CE01019655DF81E090E0F2
:103620000F90DF91CF910895089580E090E0089584
:103630001F920F920FB60F9211240BB60F922F9379
:103640003F934F935F936F937F938F939F93AF932A
:10365000BF93EF93FF938091B900887F803609F480
:103660009CC068F5883209F45BC090F4803109F49D
:1036700054C038F4882309F4F6C0883009F44DC0EA
:10368000F5C0883109F44CC0803209F45DC0EEC049
:10369000803409F468C048F4803309F455C0883395
:1036A00009F0E4C08093D30BD8C0803509F44FC033
:1036B000883509F45DC0883409F0D8C0D6C088398F
:1036C00009F4C7C0A8F4883709F467C038F488360D
:1036D00009F463C0803709F460C0C8C0883809F4B1
:1036E000B8C0803909F45FC0803809F0BFC05BC042
:1036F000803B09F486C038F4803A09F466C0883A01
:1037000009F47FC0B3C0803C09F4A7C0883C09F429
:10371000A4C0883B09F48AC0A9C08091D00B10C016
:103720009091D20B8091D10B981770F5E091D20B4C
:1037300081E08E0F8093D20BF0E0E155F44F808151
:103740008093BB0085EC86C08093D30B8EC0E09144
:10375000D20B81E08E0F8093D20B8091BB00F0E002
:10376000E155F44F80839091D20B8091D10B6EC0C4
:10377000E091D20B81E08E0F8093D20B8091BB0041
:10378000F0E0E155F44F80838091D40B81116DC03E
:1037900081E08093CF0B84EA61C083E08093D50BF6
:1037A0001092850BCFCF8091850B803208F051C0ED
:1037B000E091850B81E08E0F8093850B8091BB009B
:1037C000F0E0EB59F44F8083BDCF85EC8093BC00D3
:1037D0001092D50B8091850B803230F4E091850BEF
:1037E000F0E0EB59F44F10826091850B70E0E091AE
:1037F000630BF091640B85E69BE019951092850BA5
:1038000035C084E08093D50B1092620B1092610B4F
:10381000E0915F0BF091600B19958091610B811124
:1038200005C081E08093610B10923F0BE091620B29
:1038300081E08E0F8093620BF0E0E15CF44F8081B9
:103840008093BB009091620B8091610B981708F4F4
:1038500079CF85E88093BC0009C085EC8093BC00DB
:103860001092D50B03C01092D30B23DEFF91EF9182
:10387000BF91AF919F918F917F916F915F914F9188
:103880003F912F910F900BBE0F900FBE0F901F9086
:10389000189520913D0B90911B0B213208F049C0E7
:1038A0008091D50B8111FCCF32E03093D50B609322
:1038B000D40B3FEF3093D30B1092D20B2093D10B4C
:1038C000ACE1BBE04FEA5BE0FA013E2F341B32175C
:1038D00018F43D913193F9CF1092D00B2091D00B79
:1038E000990F922B9093D00B9091CF0B913061F464
:1038F0001092CF0B9091D00B9093BB009091BC0095
:1039000093FDF8CF95EC01C095EE9093BC0090919B
:10391000D50B9230E1F39091D30B9F3F79F08091DA
:10392000D30B803241F08091D30B803331F084E0AF
:1039300005C081E003C082E001C083E010923C0B2F
:1039400010923D0B10923E0B089561E0A2CF81E0F2
:1039500080933E0B60931B0B10923C0B10923D0B1F
:103960000895862F413208F040E2642F0E943029EA
:103970001092190B80931A0B0895EF92FF920F93F8
:103980001F93CF93DF938C01862FF801638174819D
:10399000813059F038F0823059F0833061F063683B
:1039A00071600BC06368716408C06368716505C0AD
:1039B0006368716602C063687167EB01D068F801E3
:1039C000608180E19DE0C3DF61E080E19DE0FEDD9C
:1039D0006D2F80E19DE0FADD6C2F80E19DE0F6DD4A
:1039E00080E19DE0B2DFF801618170E080E090E06D
:1039F000ABD6F801C0816C2F80E19DE0A8DF60E0CC
:103A000080E19DE0E3DD80E19DE09FDF42E06C2FFF
:103A100080E19DE0A6DF80E19DE08DDDC82F80E1A3
:103A20009DE089DDFC2EE12C9701282BC901F801CE
:103A3000028002C0969587950A94E2F7DF91CF91B4
:103A40001F910F91FF90EF9008951092190B109213
:103A50001A0B10923C0B10923D0B1092D50B81E08B
:103A60008093D40B1092CF0B61E084E102D661E029
:103A700085E1FFD5E9EBF0E080818E7F8083808156
:103A80008D7F808388E48093B80085E48093BC00B8
:103A900008950F931F93CF93DF931F92CDB7DEB797
:103AA0008C01C8010E94B6318D3059F02CF4895038
:103AB000823008F057C005C0803219F08F3231F0E3
:103AC00051C0F801838182831382EBCFF801838197
:103AD00081110BC0808191811982BE016F5F7F4F80
:103AE0000E941E278981F8018383F80183818A322D
:103AF00019F08F3271F136C0F8011382F801838119
:103B000082831382C8010E94B631882359F1C8010B
:103B10000E94B6318A3291F7F801838181110BC07E
:103B2000808191811982BE016F5F7F4F0E941E27A5
:103B30008981F8018383F80183818F32F9F6F801D6
:103B400013821282AECFC8010E94B6318A3009F4C6
:103B5000A8CFF801838182831382C8010E94B63105
:103B60008111F1CF0F90DF91CF911F910F910895A7
:103B70000F931F93CF93DF931F92CDB7DEB78C01C6
:103B8000698387DFC8010E94B6316981861306C048
:103B9000F80183818283138281E001C080E00F906D
:103BA000DF91CF911F910F910895CF93DF93EC0197
:103BB000888199810E94CB2B2A813B81820F931FA0
:103BC0009B838A83DF91CF9108950F931F93CF93A7
:103BD000DF93CDB7DEB766970FB6F894DEBF0FBEA2
:103BE000CDBF8C01CB011E8AFE0176962AE030E023
:103BF000B9010E94293990E3980F9293CB01009765
:103C0000B9F7BF01C801D1DF66960FB6F894DEBFE1
:103C10000FBECDBFDF91CF911F910F9108958F926D
:103C20009F92AF92BF92EF92FF920F931F93CF9309
:103C3000DF93CDB7DEB766970FB6F894DEBF0FBE41
:103C4000CDBF7C011E8A8E010A5E1F4F8AE0882E3E
:103C5000912CA12CB12CCB01BA01A50194010E9499
:103C6000F737942F852F605DF80162938F01A901CA
:103C7000692F782F411551056105710561F7BF0165
:103C8000C70193DF66960FB6F894DEBF0FBECDBFB7
:103C9000DF91CF911F910F91FF90EF90BF90AF9068
:103CA0009F908F900895CF93DF93EC018881998145
:103CB0000E94C42B2A813B81820F931F9B838A839E
:103CC000DF91CF910895CF93DF93EC0168817981E3
:103CD0008AE090E00E948431009729F0FC01118273
:103CE000108215821482EA81FB81309751F0208185
:103CF00031812115310511F0F901F9CF91838083CC
:103D000002C09B838A83DF91CF9108950F931F9305
:103D1000CF93DF938B01FC01C281D381209759F0AF
:103D20006A817B81C8010E94763B892B21F0099032
:103D3000D881C02DF3CFCE01DF91CF911F910F918C
:103D40000895AF92BF92CF92DF92EF92FF920F93BE
:103D50001F93CF93DF931F92CDB7DEB78C01DC01A9
:103D60001696AD90BC901797F501C280D3808681DE
:103D70009781C80ED91E7801F2E0EF0EF11CC70141
:103D800088DEC7010E94B631282F8732C9F18232FE
:103D9000B9F180ED820F8A3078F081EA820F8C31A0
:103DA00058F08FEB820F8A3138F02B3229F083EDF7
:103DB000820F823008F070C0F801858184831582FB
:103DC000D50116968D919C911797AC014F5F5F4F6F
:103DD00014966D917C9115976417750760F0129693
:103DE0006D917C911397FB01E80FF91F17965C9377
:103DF0004E9316972083C7010E94B631282FC9CF52
:103E0000F801858184831582C70129830E94B63118
:103E1000982F2981882309F43FC0D80115968C91E9
:103E2000159714968C93149715961C929217A1F1DE
:103E30009C35B9F4C70129830E94B631982FEEE66C
:103E4000FAE029818081882331F0891302C09181B1
:103E500002C03296F7CF9923F9F0F8018581848367
:103E60001582D50116964D915C911797BA016F5F37
:103E70007F4F1496ED91FC911597E617F70720F206
:103E80001296ED91FC911397E40FF51F17967C9312
:103E90006E9316979083B8CFF501868197819C0128
:103EA0002F5F3F4F448155814217530760F0428195
:103EB0005381FA01E80FF91FD50117963C932E9311
:103EC0001697108202C0C12CD12CC6010F90DF9131
:103ED000CF911F910F91FF90EF90DF90CF90BF9007
:103EE000AF900895FC01A089B1898C91A689B7890A
:103EF00082FD0FC09C91818D8F5F8F73228D821701
:103F000049F0218DDF01A20FB11D5D969C93818F39
:103F100008958C910895FC01538D448D252F30E038
:103F2000842F90E0821B930B541710F0CF960895C6
:103F300001970895FC01918D828D981761F0828D13
:103F4000DF01A80FB11D5D968C91928D9F5F9F73CD
:103F5000928F90E008958FEF9FEF0895FC01918D6F
:103F6000828D981731F0828DE80FF11D858D90E0DC
:103F700008958FEF9FEF0895FC01918D228D892F79
:103F800090E0805C9F4F821B91098F739927089561
:103F900086ED9BE0F1DF21E0892B09F420E0822F00
:103FA000089583E79CE0E8DF21E0892B09F420E015
:103FB000822F0895FC01848DDF01A80FB11DA35A43
:103FC000BF4F2C91848D90E001968F739927848F39
:103FD000A689B7892C93A089B1898C9180648C9330
:103FE000938D848D981306C00288F389E02D80811B
:103FF0008F7D80830895EF92FF920F931F93CF934D
:10400000DF93EC0181E0888F9B8D8C8D981305C028
:10401000E889F989808185FD23C0F62E0B8D10E09B
:104020000F5F1F4F0F731127E02E8C8DE8120BC00E
:104030000FB607FCFACFE889F989808185FFF5CFB3
:10404000CE01B8DFF2CF8B8DFE01E80FF11DE35AF0
:10405000FF4FF0820B8FEA89FB898081806207C065
:10406000EE89FF896083E889F98980818064808393
:1040700081E090E0DF91CF911F910F91FF90EF9041
:104080000895CF93DF93EC01888D8823C1F0EA89EE
:10409000FB89808185FD05C0A889B9898C9186FD41
:1040A0000EC00FB607FCF5CF808185FFF2CFA8893F
:1040B000B9898C9185FFEDCFCE017CDFE8CFDF9110
:1040C000CF91089580E090E0892B19F06ADF81118B
:1040D00020C080E090E0892B19F05ADF81111CC0CC
:1040E00080E090E0892B41F080E090E0892B21F086
:1040F0000E940000811113C080E090E0892BA1F0A4
:1041000080E090E0892B81F00E94000081110AC0BC
:1041100008950E940000DDCF0E940000E1CF0E94C0
:104120000000EACF0C940000089590E0FC01319764
:10413000E231F10508F04EC08827EE58FF4F8F4F4F
:104140000C943C39809180008F7703C0809180006F
:104150008F7D80938000089580918000877FF9CFC4
:1041600084B58F7702C084B58F7D84BD089580911A
:10417000B0008F7703C08091B0008F7D8093B00036
:104180000895809190008F7707C0809190008F7D77
:1041900003C080919000877F809390000895809164
:1041A000A0008F7707C08091A0008F7D03C0809111
:1041B000A000877F8093A0000895809120018F77D1
:1041C00007C0809120018F7D03C080912001877FEF
:1041D0008093200108953FB7F89480918B0B9091C4
:1041E0008C0BA0918D0BB0918E0B26B5A89B05C0B2
:1041F0002F3F19F00196A11DB11D3FBFBA2FA92F66
:10420000982F8827820F911DA11DB11DBC01CD01E2
:1042100042E0660F771F881F991F4A95D1F70895CE
:1042200008950F931F93CF93DF93DC0155968C91E4
:104230005597823071F0833009F1813009F08CC0DC
:104240001496ED91FC911597E41BF50BE21BF30B13
:1042500020C01496ED91FC911597CF01861B970B0A
:10426000BC01615071091696ED91FC911797CF0131
:10427000841B950BAC01421B530B6EC01696ED913F
:10428000FC911797CF01861B970BBC0161507109F8
:10429000FA0177FD1BC116968D919C9117976817AF
:1042A00079070CF013C1F7FF04C02E0F3F1FE0E0A9
:1042B000F0E014968D919C911597AF01420F531F1A
:1042C000841795071CF49C012E1B3F0B1216130636
:1042D0000CF0FCC0CB0177FD079643E095958795E0
:1042E0004A95E1F79695982F882797958795E80F37
:1042F000F91FEA5EFD4F6770772781E090E001C00B
:10430000880F6A95EAF7482F0130110541F088F0CF
:104310000230110509F0DAC02E0F3F1F15C02E0F15
:104320003F1FE217F30709F4D1C08081842B8193EA
:10433000F8CF80952E0F3F1FE217F30709F4C6C090
:10434000908198239193F8CFE217F30709F4BEC048
:10435000808184278193F8CF77FDB8C014968D9122
:104360009C911597681779070CF0B0C057FF04C0EF
:10437000240F351F40E050E016968D919C911797C1
:10438000FA01E20FF31F8E179F071CF49C01241BF8
:10439000350B121613060CF099C0A22F842F8695A8
:1043A0008695869590E8899F600D711D1124FB010B
:1043B000EA5EFD4F4770A9F198E0941B492F50E049
:1043C000EA01C65DD94F8881291790F4421B510933
:1043D0002FEF30E002C0359527954A95E2F782230A
:1043E0000130110541F068F00230110589F06EC00E
:1043F0000130110519F42081822B0CC00130110508
:1044000020F480952081822305C00230110531F40B
:10441000208182278083A91708F458C0A91BE0587F
:10442000FF4FA83048F10230110559F4EF018A2FEF
:10443000988190959883C058DF4F88508830C0F796
:1044400030C081E00130110509F080E08195EF0175
:104450009A2F8883C058DF4F98509830D0F788EF54
:104460008A0F86958695869590E8899FE00DF11DC7
:104470001124E058FF4FA770AA2341F1B0E0AE5DD0
:10448000B94F8C910130110529F038F00230110537
:10449000D1F01CC09081892B18C080959081892310
:1044A00014C088EF8A0F86958695869590E8899F37
:1044B000E00DF11D1124E058FF4FA77039F0B0E076
:1044C000AE5DB94F8C91908189278083DF91CF9128
:1044D0001F910F9108950E94693B1F920F920FB692
:1044E0000F9211240BB60F922F933F934F935F932C
:1044F0006F937F938F939F93AF93BF93EF93FF93AC
:1045000086ED9BE057DDFF91EF91BF91AF919F91B9
:104510008F917F916F915F914F913F912F910F906C
:104520000BBE0F900FBE0F901F9018951F920F9209
:104530000FB60F9211240BB60F922F933F934F9308
:104540005F936F937F938F939F93AF93BF93EF93FB
:10455000FF9386ED9BE0C6DCFF91EF91BF91AF9199
:104560009F918F917F916F915F914F913F912F918B
:104570000F900BBE0F900FBE0F901F9018951F92BB
:104580000F920FB60F9211240BB60F922F933F93F9
:104590004F935F936F937F938F939F93AF93BF934B
:1045A000EF93FF9383E79CE005DDFF91EF91BF91CF
:1045B000AF919F918F917F916F915F914F913F91BB
:1045C0002F910F900BBE0F900FBE0F901F9018955C
:1045D0001F920F920FB60F9211240BB60F922F93CA
:1045E0003F934F935F936F937F938F939F93AF937B
:1045F000BF93EF93FF9383E79CE074DCFF91EF910F
:10460000BF91AF919F918F917F916F915F914F91EA
:104610003F912F910F900BBE0F900FBE0F901F90E8
:104620001895CF93DF93282F30E0F901EE50F94F22
:104630008491F901EE5CFE4FD491F901EE56FE4FE4
:10464000C491CC2389F0811170DDEC2FF0E0EE0FE6
:10465000FF1FE852F94FA591B491EC91ED2381E051
:1046600090E021F480E002C080E090E0DF91CF9103
:1046700008951F93CF93DF93282F30E0F901EE5078
:10468000F94F8491F901EE5CFE4FD491F901EE5699
:10469000FE4FC491CC23C1F0162F811146DDEC2FC3
:1046A000F0E0EE0FFF1FE858FE4FA591B4918FB7D1
:1046B000F894111105C09C91ED2FE095E92302C0FB
:1046C000EC91ED2BEC938FBFDF91CF911F9108956B
:1046D000CF93DF9390E0FC01EE5CFE4F2491FC0150
:1046E000EE56FE4F8491882361F190E0880F991F68
:1046F000FC01E85EFE4FC591D491FC01E858FE4FE5
:10470000A591B491611109C09FB7F8948881209553
:1047100082238883EC912E230BC0623061F49FB713
:10472000F8943881822F809583238883EC912E2BF7
:104730002C939FBF06C08FB7F894E8812E2B288357
:104740008FBFDF91CF9108958F929F92AF92BF92CA
:10475000CF92DF92EF92FF926B017C013CDD4B0127
:104760005C01C114D104E104F104E9F034DDDC01A1
:10477000CB0188199909AA09BB09883E9340A10574
:10478000B10578F321E0C21AD108E108F10888EEFA
:10479000880E83E0981EA11CB11CC114D104E10451
:1047A000F10421F7DECFFF90EF90DF90CF90BF9024
:1047B000AF909F908F9008952FB7F8946091870BDA
:1047C0007091880B8091890B90918A0B2FBF08956F
:1047D0001F920F920FB60F9211242F933F938F9336
:1047E0009F93AF93BF938091870B9091880BA0917B
:1047F000890BB0918A0B3091860B23E0230F2D3764
:1048000020F40196A11DB11D05C026E8230F0296D4
:10481000A11DB11D2093860B8093870B9093880B6D
:10482000A093890BB0938A0B80918B0B90918C0B8A
:10483000A0918D0BB0918E0B0196A11DB11D80939F
:104840008B0B90938C0BA0938D0BB0938E0BBF9121
:10485000AF919F918F913F912F910F900FBE0F902D
:104860001F9018951F920F920FB60F9211240BB63E
:104870000F922F933F934F935F936F937F938F93F9
:104880009F93AF93BF93EF93FF93E0911402F09146
:1048900015021995FF91EF91BF91AF919F918F9163
:1048A0007F916F915F914F913F912F910F900BBE30
:1048B0000F900FBE0F901F9018951F920F920FB67A
:1048C0000F9211240BB60F922F933F934F935F9348
:1048D0006F937F938F939F93AF93BF93EF93FF93C8
:1048E000E0911202F09113021995FF91EF91BF919F
:1048F000AF919F918F917F916F915F914F913F9178
:104900002F910F900BBE0F900FBE0F901F90189518
:104910001F920F920FB60F9211240BB60F922F9386
:104920003F934F935F936F937F938F939F93AF9337
:10493000BF93EF93FF93E0910802F091090219955C
:10494000FF91EF91BF91AF919F918F917F916F9167
:104950005F914F913F912F910F900BBE0F900FBE23
:104960000F901F9018951F920F920FB60F9211245F
:104970000BB60F922F933F934F935F936F937F9359
:104980008F939F93AF93BF93EF93FF93E0910602B2
:10499000F09107021995FF91EF91BF91AF919F910F
:1049A0008F917F916F915F914F913F912F910F90D8
:1049B0000BBE0F900FBE0F901F9018951F920F9275
:1049C0000FB60F9211240BB60F922F933F934F9374
:1049D0005F936F937F938F939F93AF93BF93EF9367
:1049E000FF93E0911002F09111021995FF91EF9160
:1049F000BF91AF919F918F917F916F915F914F91F7
:104A00003F912F910F900BBE0F900FBE0F901F90F4
:104A100018951F920F920FB60F9211240BB60F929A
:104A20002F933F934F935F936F937F938F939F93B6
:104A3000AF93BF93EF93FF93E0910E02F0910F02BB
:104A40001995FF91EF91BF91AF919F918F917F91B8
:104A50006F915F914F913F912F910F900BBE0F90EF
:104A60000FBE0F901F9018951F920F920FB60F92C6
:104A700011240BB60F922F933F934F935F936F9335
:104A80007F938F939F93AF93BF93EF93FF93E091A7
:104A90000C02F0910D021995FF91EF91BF91AF912A
:104AA0009F918F917F916F915F914F913F912F9146
:104AB0000F900BBE0F900FBE0F901F9018951F9276
:104AC0000F920FB60F9211240BB60F922F933F93B4
:104AD0004F935F936F937F938F939F93AF93BF9306
:104AE000EF93FF93E0910A02F0910B021995FF9169
:104AF000EF91BF91AF919F918F917F916F915F9156
:104B00004F913F912F910F900BBE0F900FBE0F90C2
:104B10001F901895FC01862F41E050E060E070E0A6
:104B200004C0440F551F661F771F8A95D2F78189ED
:104B3000842B818B409582894823428B0895EF9284
:104B4000FF921F93CF93DF931F92CDB7DEB77C0107
:104B5000162FDC0118966C9118971B968D919C91DD
:104B60001C9749830E94A71CF701208D4981413081
:104B700071F441E050E060E070E004C0440F551F64
:104B8000661F771F1A95D2F7422B408F0EC081E027
:104B900090E0A0E0B0E004C0880F991FAA1FBB1FDF
:104BA0001A95D2F780958223808FF7016189808DD5
:104BB0006823608F83859485DC01ED91FC910190E1
:104BC000F081E02D1995F701838594850F90DF9191
:104BD000CF911F91FF90EF900C94A51CCF92DF9284
:104BE000EF92FF921F93CF93DF93EC01162F8B89E7
:104BF00090E0A0E0B0E004C0B695A79597958795A2
:104C00006A95D2F780FD42C0D7DDCC88DD88EE887A
:104C1000FF882AE0C20ED11CE11CF11CC616D70683
:104C2000E806F90608F043C041E068858B859C855D
:104C30000E94B11CC1DD6C8B7D8B8E8B9F8B8B8515
:104C40009C85DC01ED91FC910084F185E02D1995A6
:104C5000892B69F18B859C85DC01ED91FC910284A7
:104C6000F385E02D19959A89982309F19B89892B61
:104C70008B8B90E0A0E0B0E0012E04C0B695A79524
:104C8000979587950A94D2F780FF11C081E090E054
:104C9000A0E0B0E004C0880F991FAA1FBB1F1A959F
:104CA000D2F780959B8989238B8B81E001C080E0BE
:104CB000DF91CF911F91FF90EF90DF90CF900895FB
:104CC000CF93DF93EC018B859C850E94251D8989FC
:104CD000811103C08A898823C9F068858B859C85EA
:104CE0000E94A71CAB85BC85ED91FC9111976A8948
:104CF0009989692B70E0609570950190F081E02DA5
:104D0000CD0119958B859C850E94A51C8D858823D6
:104D1000D1F062E08E85DCDC2F8538899E8592306B
:104D2000D1F09330D1F08EEE890F843060F487E1BA
:104D3000891B14C0823081F5809169008C7F82606C
:104D400080936900E89A38DD6C8B7D8B8E8B9F8B0E
:104D5000DF91CF91089580E001C081E0E82FF0E07D
:104D6000EE0FFF1FEA5FFD4F31832083833041F454
:104D700080916900837F886080936900E99AE3CF1E
:104D8000843090F48130B1F680916A00837F88602E
:104D900080936A00ED9AD7CF80916A008C7F826001
:104DA00080936A00EC9ACFCF843041F480916900FF
:104DB0008F7C806280936900EA9AC5CF853061F765
:104DC000809169008F73806880936900EB9ABBCFF4
:104DD0009091AC11992339F08EBD00000DB407FEFF
:104DE000FDCF8EB5089528E030E040E8E091AF11A6
:104DF000F091B01150819091B611909595239083C8
:104E0000E091AD11F091AE119091B511542F58234E
:104E100019F05081952B03C0508190959523908374
:104E2000E091AF11F091B01150819091B611952B96
:104E30009083469521503109C9F60895CF92DF92AB
:104E4000EF92FF920F931F93CF93DF93EC018B01AF
:104E5000B3DC688779878A879B87E881F981028438
:104E6000F385E02DCE01199597FD05C0F8018083EB
:104E700081E090E016C0A0DCC884D984EA84FB8479
:104E8000DC01CB018C199D09AE09BF09CC80DD8006
:104E9000EE80FF808C159D05AE05BF05F0F280E029
:104EA00090E0DF91CF911F910F91FF90EF90DF90F5
:104EB000CF900895FC01A089B18982E08C93A485EC
:104EC000B5851C92A685B78580E18C93108EA48948
:104ED000B58986E08C93A289B3898C9180618C938B
:104EE000A289B3898C9188608C93A289B3898C91B3
:104EF00080688C930288F389E02D80818F7D808388
:104F000008956FEF86ED9BE076C8FC0144815581E2
:104F10006081718186ED9BE0E7C1CF93C82F8091BE
:104F2000A7118F3F51F1E091B111F091B211808141
:104F30009091B711982B9083E091B311F091B41137
:104F400020819091B811909592239083E091B111B6
:104F5000F091B21120819091B71190959223908396
:104F60008C2F36DFE091B111F091B21190818091D8
:104F7000B711892B8083CF9108956091A51180E1AD
:104F80009DE00E94A71C60E080E19DE00E94E61A7F
:104F90006C2F80E19DE00E94E61A80E19DE0CF91B8
:104FA0000C94A51CFF920F931F93CF93DF9381E284
:104FB000B4DF80E0B2DF8FE7B0DF82E2AEDF80E017
:104FC000ACDF87E0AADF8091A7118F3F71F1E091FC
:104FD000B111F091B21190818091B711892B80832A
:104FE000E091B311F091B41190818091B811892BA7
:104FF0008083E091B111F091B21190818091B7114D
:10500000809589238083C6E1D2E08991E1DE86E044
:10501000C631D807D1F7E091B111F091B21190816A
:105020008091B711892B80832CC0F090B8008CE060
:105030008093B800C6E1D2E06091A51180E19DE0C7
:105040000E94A71C60E480E19DE00E94E61A00E057
:1050500010E0FE01E00FF11F608180E19DE00E9401
:10506000E61A0F5F1F4F0031110599F780E19DE0AF
:105070000E94A51C609686E0C631D807E9F6F0923A
:10508000B800DF91CF911F910F91FF90089580910B
:10509000811190918211009749F0DC01ED91FC9112
:1050A0000680F781E02D1995811102C080E00895F6
:1050B000E0918111F0918211428153816481758167
:1050C00040938311509384116093851170938611DE
:1050D000468157816085718540938711509388116F
:1050E0006093891170938A110895CF93DF93809113
:1050F000811190918211892B21F08DE791E10E941D
:10510000441A80917F11909180118230910509F4A9
:1051100045C06CF4009709F47BC0019709F08EC07C
:1051200082E290E00E945839FC0184E43DC0069779
:105130000CF084C082E290E00E945839FC0180E7C4
:10514000828786E698E7948783878FE0858780E06B
:1051500090E0A4E3B2EC86879787A08BB18B80E0C8
:1051600090E0AFE2B3E4828B938BA48BB58B80E0AD
:105170009FEFAFE7B7E4868B978BA08FB18F40E0AE
:1051800050E068EC72E4428F538F648F758F868F86
:10519000978FA0A3B1A386E396E033C082E290E0AC
:1051A0000E945839FC0185E4828780E094E294876C
:1051B00083878FE0858780E090E0A4E3B2EC868768
:1051C0009787A08BB18B80E090E0AFE2B3E4828B55
:1051D000938BA48BB58B80E09FEFAFE7B7E4868B12
:1051E000978BA08FB18F40E050E068EC72E4428F63
:1051F000538F648F758F868F978FA0A3B1A382E49E
:1052000096E091838083F0938211E093811116C020
:10521000C2E6D6E0899199919093801180937F1195
:1052200064DF882319F033DF811108C086E0C836B7
:10523000D80781F78DE791E10E94441A81E020911F
:10524000811130918211232B09F480E0DF91CF91FD
:105250000895AC0160E070E02AE086ED9BE0B0C20A
:105260009091D50B9111FCCF91E09093D50B909339
:10527000D40B2FEF2093D30B1092D20B260F209339
:10528000D10B9093D00B9091D00B880F892B8093EA
:10529000D00B8091CF0B813061F41092CF0B8091B5
:1052A000D00B8093BB008091BC0083FDF8CF85ECD0
:1052B00001C085EE8093BC008091D50B8130E1F375
:1052C0008091D20B861710F46091D20BAFEABBE04D
:1052D0002FE83BE0F9018E2F821B861718F48D9181
:1052E0008193F9CF862F0895CF92DF92EF92FF92AC
:1052F0000F931F93CF93DF936C017A018B01C0E072
:10530000D0E0CE15DF0589F0D8016D918D01D60171
:10531000ED91FC910190F081E02DC6011995892B4A
:1053200011F47E0102C02196ECCFC701DF91CF912D
:105330001F910F91FF90EF90DF90CF9008959F9273
:10534000AF92BF92CF92DF92EF92FF920F931F9393
:10535000CF93DF9300D000D0CDB7DEB7FC019085AE
:10536000992309F4D3C06B017F01915090875F01AD
:1053700082E0A80EB11CC5010E94491DC501F6D7E7
:105380008B3521F08B3709F493C09CC0F701008165
:105390001181B80184E090E0B7D7009739F0FC01A3
:1053A00011830083138212828C0111C08091BE117F
:1053B00081110BC01092BB111092BA111092BD1145
:1053C0001092BC1181E08093BE110AEB11E16BE5F4
:1053D000C5010E94B81D882309F44AC06DE5C501C6
:1053E0000E94B81D811155C086E0982E1A8219823C
:1053F000BE016F5F7F4FC701A2DF8823C9F1F801AB
:105400006081718188E090E07FD7DC01892B39F0E1
:1054100011961C921E9213961C921E921297F801DE
:10542000228133812115310551F0F901808191816B
:10543000009711F09C01F9CFB183A08303C0F8015C
:10544000B383A2831097A1F0FE0131961296892DA5
:1054500001900D928A95E1F76DE5C5010E94B81D96
:10546000811117C06CE2C5010E94B81D8111BECF29
:105470008091BE1181110BC01092BB111092BA1114
:105480001092BD111092BC1181E08093BE110AEB05
:1054900011E1F80180819181892B11F410E031C074
:1054A00086E090E0F601918380831383028328C015
:1054B000C70195D3FC0120813181232B79F327E0AB
:1054C00030E019C0C50152D711E0873219F082329D
:1054D00009F010E0C7010E94A11E0097F9F2112304
:1054E00041F022E030E0F601318320839383828310
:1054F00008C021E030E0F60131832083938382836A
:1055000011E0F70180858F5F808701C010E0812F57
:1055100026960FB6F894DEBF0FBECDBFDF91CF91B8
:105520001F910F91FF90EF90DF90CF90BF90AF90C1
:105530009F900895FF920F931F93CF93DF93EC01F9
:1055400008EB10E0F801F0808CE080836091B911E5
:1055500080E19DE00E94A71C60E480E19DE00E9444
:10556000E61ABE0184E0769567958A95E1F780E1B9
:105570009DE00E94E61ABE0194E0660F771F9A959F
:10558000E1F780E19DE00E94E61A80E19DE00E9443
:10559000A51CF801F082DF91CF911F910F91FF9030
:1055A0000895FC019C012E5F3F4F8FEF41E39191E5
:1055B000892798E087FF03C0880F842701C0880FE0
:1055C0009150C1F7E217F30791F70895FC01248188
:1055D0003581232B31F421E061157105A1F0FB0128
:1055E00008C0FC01808191816115710531F421E0D1
:1055F000FC018081882339F005C00E94763B21E0C0
:10560000892B09F020E0822F08950F931F93CF93E9
:10561000DF93EC0188819981009729F02A813B81F1
:105620002617370788F48B016F5F7F4F0E94853AFA
:10563000009761F0998388831B830A832C813D81C5
:10564000232B11F4FC01108281E001C080E0DF9186
:10565000CF911F910F910895CF93DF93EC01888133
:105660009981009711F00E94ED39198218821D82EC
:105670001C821B821A82DF91CF910895FC018081E8
:1056800091810C94ED39CF92DF92EF92FF920F93BC
:105690001F93CF93DF93CDB7DEB7A1970FB6F894E2
:1056A000DEBF0FBECDBF8C01CB01BA01F801118264
:1056B0001082138212821582148230E0AE014F5F95
:1056C0005F4F6A010E947D36F60101900020E9F7E4
:1056D00031977F01EC18FD08B701C80196DF8111F1
:1056E00003C0C801B9DF08C0F801F582E482B60141
:1056F000808191810E947F3BA1960FB6F894DEBF16
:105700000FBECDBFDF91CF911F910F91FF90EF9012
:10571000DF90CF900895EF92FF920F931F93CF9356
:10572000DF93EC01198218821B821A821D821C826F
:105730006115710511F18B01FB0101900020E9F762
:1057400031977F01E61AF70AB7015FDF811108C0C0
:10575000CE01DF91CF911F910F91FF90EF907CCF01
:10576000FD82EC82B80188819981DF91CF911F91F0
:105770000F91FF90EF900C947F3BDF91CF911F91A1
:105780000F91FF90EF900895DC01ED91FC91019055
:10579000F081E02D19946115710579F0FB010190FC
:1057A0000020E9F73197AF01461B570BDC01ED9163
:1057B000FC910280F381E02D199480E090E008953F
:1057C0004F925F926F927F92EF92FF920F931F938F
:1057D000CF93DF93CDB7DEB7A1970FB6F894DEBFB6
:1057E0000FBECDBF7C01FA01CB0119A2223008F413
:1057F0002AE08E010F5D1F4F422E512C612C712C1F
:10580000BF01A30192010E94F737F901CA010150BB
:1058100011096A3014F4605D01C0695CD8016C93B1
:10582000232B242B252B61F7B801C701B4DFA196E8
:105830000FB6F894DEBF0FBECDBFDF91CF911F91A1
:105840000F91FF90EF907F906F905F904F90089531
:10585000462F50E060E070E02AE0B2CFCF93DF93B4
:10586000AC0160E070E02AE08BE891E1A9DFEC0197
:1058700063EE78E08BE891E18EDF8C0F9D1FDF9166
:10588000CF9108954F925F926F927F928F929F92E5
:10589000AF92BF92CF92DF92EF92FF92CF93DF93BE
:1058A000EC016A017B01B22E9A01AB01C701B6017E
:1058B0000E942539882319F069E77AE027C026017C
:1058C0003701E89477F82FEF3FEF4FE75FE7C30129
:1058D000B2010E94253981110DC02FEF3FEF4FE734
:1058E0005FE7C301B2010E94B83618161CF46DE7D9
:1058F0007AE00CC02FEF3FEF4FE75FE4C701B6013E
:105900000E942139181694F461E87AE0CE01DF9103
:10591000CF91FF90EF90DF90CF90BF90AF909F908E
:105920008F907F906F905F904F9035CF2FEF3FEF2C
:105930004FE75FECC701B6010E94B83687FDE4CFA0
:1059400020E030E0A901C701B6010E94B83687FF08
:1059500009C06DE2CE0118DF4C01F7FAF094F7F8B8
:10596000F09402C0812C912CA12C60E070E080E0CA
:105970009FE3AB1441F020E030E040E251E40E94AC
:105980008D38A394F6CF9B01AC01C701B6010E94EC
:1059900029382B013C010E94F5386B017C010E94E3
:1059A000BC369B01AC01C301B2010E9428382B0117
:1059B0003C012AE0B701A601CE0102DF7C01E80C20
:1059C000F91CBB2029F06EE2CE01DEDEE80EF91EE6
:1059D000DB2CDD2021F120E030E040E251E4C30186
:1059E000B2010E941D372B013C010E94F5384B018A
:1059F000A12CB12C2AE0B501A401CE01E1DEE80E14
:105A0000F91EC501B4010E94BC369B01AC01C30163
:105A1000B2010E9428382B013C01DA94DACFC70189
:105A2000DF91CF91FF90EF90DF90CF90BF90AF903C
:105A30009F908F907F906F905F904F900895CF933D
:105A4000DF93242FAB01BC018BE891E11BDFEC015C
:105A500063EE78E08BE891E19EDE8C0F9D1FDF9175
:105A6000CF91089598CEFF920F931F93CF93DF931A
:105A70006115710549F465E87AE0DF91CF911F91D6
:105A80000F91FF900C94D51D8B01EC0162E2CE01C9
:105A90000E94531EF80161918F01662351F0EAE6DE
:105AA000FAE0F080FF2099F39181961759F0329631
:105AB000F8CF62E2CE01DF91CF911F910F91FF905D
:105AC0000C94531E6CE5CE010E94531E6F2DDFCF48
:105AD000EF92FF920F931F93CF93DF938C01EB0113
