:100000009DC300000C94992A0C946E2A0C94432AE8
:100010000C94182A0C94ED290C94C2290C9497295D
:100020000C946C29BCC30000BAC30000B8C3000024
:10003000B6C30000B4C30000B2C30000B0C30000E8
:10004000AEC30000ACC30000AAC30000A8C30000F8
:10005000A6C30000A4C30000A2C300000C94222980
:100060009EC300000C9422280C94F92798C300002A
:1000700096C3000094C3000092C3000090C3000028
:100080008EC300008CC300008AC3000088C3000038
:100090000C94D0270C94A72782C300000C943C2D0D
:1000A0007EC300007CC300007AC3000078C3000058
:1000B00076C3000074C3000072C3000070C3000068
:1000C0006EC300006CC300006AC3000068C3000078
:1000D00066C3000064C3000062C3000060C3000088
:1000E0005EC30000E71AE11AF71AEF1AEC1ABB1AFE
:1000F000DB1A821AEA25ED25DC25E025E6252426F3
:10010000F125F525FB25FF25032609260D261126B9
:10011000242617261B261F26000021002400270066
:100120002A002D0030003300010100000401070106
:100130000A010102102020080810204010204080F1
:10014000020102010804020101020408102040809B
:100150008040201008040201800402018040201029
:100160000804020108040201010204081020408072
:100170000102040810204080000022002500280011
:100180002B002E003100340002010000050108019F
:100190000B0105050505070508080808020202020B
:1001A0000A0A080804040404010101010101010113
:1001B0000303030303030303040707070C0C0C0CDE
:1001C0000C0C0C0C020202020606060606060606C7
:1001D0000B0B0B0B0B0B0B0B00000000003E5B4FDF
:1001E0005B3E3E6B4F6B3E1C3E7C3E1C183C7E3C97
:1001F000181C577D571C1C5E7F5E1C00183C1800A5
:10020000FFE7C3E7FF0018241800FFE7DBE7FF3034
:10021000483A060E2629792926407F050507407FA2
:1002200005253F5A3CE73C5A7F3E1C1C08081C1C15
:100230003E7F14227F22145F5F005F5F06097F010B
:100240007F006689956A606060606094A2FFA294F6
:1002500008047E040810207E201008082A1C0808C4
:100260001C2A08081E101010100C1E0C1E0C303812
:100270003E3830060E3E0E06000000000000005F13
:1002800000000007000700147F147F14242A7F2A2F
:1002900012231308646236495620500008070300F1
:1002A000001C2241000041221C002A1C7F1C2A083D
:1002B000083E0808008070300008080808080000A0
:1002C00060600020100804023E5149453E00427F14
:1002D000400072494949462141494D331814127F63
:1002E0001027454545393C4A494931412111090703
:1002F0003649494936464949291E00001400000084
:100300004034000000081422411414141414004155
:1003100022140802015909063E415D594E7C121112
:10032000127C7F494949363E414141227F4141414A
:100330003E7F494949417F090909013E41415173C5
:100340007F0808087F00417F41002040413F017F36
:10035000081422417F404040407F021C027F7F04FE
:1003600008107F3E4141413E7F090909063E415147
:10037000215E7F09192946264949493203017F0137
:10038000033F4040403F1F2040201F3F4038403F38
:10039000631408146303047804036159494D43004E
:1003A0007F4141410204081020004141417F040285
:1003B000010204404040404000030708002054541C
:1003C00078407F28444438384444442838444428FA
:1003D0007F385454541800087E090218A4A49C784D
:1003E0007F0804047800447D40002040403D007FA9
:1003F0001028440000417F40007C047804787C0889
:100400000404783844444438FC182424181824245C
:1004100018FC7C08040408485454542404043F4441
:10042000243C4040207C1C2040201C3C4030403C70
:1004300044281028444C9090907C4464544C4400D0
:100440000836410000007700000041360800020134
:100450000204023C2623263C1EA1A161123A404020
:10046000207A38545455592155557941225454789D
:1004700042215554784020545579400C1E52721236
:1004800039555555593954545459395554545800BF
:1004900000457C410002457D420001457C407D12C3
:1004A00011127DF0282528F07C5455450020545425
:1004B0007C547C0A097F4932494949323A444444D0
:1004C0003A324A4848303A4141217A3A424020780B
:1004D000009DA0A07D3D4242423D3D4040403D3C0C
:1004E00024FF2424487E4943662B2FFC2F2BFF0931
:1004F00029F620C0887E0903205454794100004425
:100500007D413048484A32384040227A007A0A0A0F
:10051000727D0D19317D2629292F28262929292682
:1005200030484D4020380808080808080808382FC7
:1005300010C8ACBA2F102834FA00007B0000081451
:100540002A142222142A14085500550055AA55AA27
:1005500055AAFF55FF55FF000000FF00101010FFC7
:1005600000141414FF001010FF00FF1010F010F022
:10057000141414FC001414F700FF0000FF00FF1413
:1005800014F404FC141417101F10101F101F14145F
:10059000141F00101010F0000000001F10101010A9
:1005A0001F10101010F010000000FF10101010109D
:1005B00010101010FF10000000FF140000FF00FFDB
:1005C00000001F10170000FC04F414141710171477
:1005D00014F404F40000FF00F71414141414141499
:1005E000F700F7141414171410101F101F1414140C
:1005F000F4141010F010F000001F101F0000001F76
:1006000014000000FC140000F010F01010FF10FFA8
:10061000141414FF141010101F00000000F010FF3D
:10062000FFFFFFFFF0F0F0F0F0FFFFFF0000000021
:1006300000FFFF0F0F0F0F0F3844443844FC4A4AA5
:100640004A347E02020606027E027E02635549415A
:10065000633844443C04407E201E2006027E020291
:1006600099A5E7A5991C2A492A1C4C7201724C30A5
:100670004A4D4D303048784830BC625A463D3E497C
:100680004949007E0101017E2A2A2A2A2A44445F20
:10069000444440514A444040444A51400000FF0114
:1006A00003E080FF000008086B6B08361236243622
:1006B000060F090F06000018180000001010003087
:1006C00040FF0101001F01011E00191D1712003C0F
:1006D0003C3C3C00000000000000200023002600FD
:1006E00029002C002F003200000100000301060148
:1006F000090100000A0B02090C0D0E080703040192
:1007000000000000000000000000000000000000E9
:1007100000000000000000000000000000001211B6
:1007200010000000000000000000000000000000B9
:1007300000000000000000003636693711241FBE9B
:10074000CFEFD1E2DEBFCDBF00E00CBF1AE0A0E0EA
:10075000B2E0E2E1F9E700E00BBF02C007900D92C2
:10076000AE3CB107D9F722E1AEECBAE001C01D9270
:10077000AB30B207E1F713E0CDE9D3E000E006C00B
:1007800021970109802FFE010E942E3ACC39D10712
:1007900080E00807A9F70E945D320C94783C30CCC9
:1007A0004F925F926F927F928F929F92AF92BF9281
:1007B000CF92DF92EF92FF920F931F93CF93DF932D
:1007C000CDB7DEB7CB56D2400FB6F894DEBF0FBE22
:1007D000CDBF60E08FE291E10E94302FA0E0B0E059
:1007E0009C01AD012954324141095109A2E3B0E015
:1007F0000E94DF38ABEBCA2EA8E4DA2EE12CF12CF4
:10080000A70196010E94C3383093180B2093170B51
:1008100061E08FE291E10E94302FA0E0B0E09C0106
:10082000AD012C5A3D4041095109A2E3B0E00E94BC
:10083000DF3828E53DE440E050E00E94C3383093C3
:10084000160B2093150B62E08FE291E10E94302F8E
:10085000A0E0B0E09C01AD012954324141095109A9
:10086000A2E3B0E00E94DF38A70196010E94C338DE
:100870003093140B2093130B63E08FE291E10E94FD
:10088000302FAC0160E070E09A01AB012954324195
:1008900041095109AAEAB5E00E94DF38A701960193
:1008A0000E94C3383093260B2093250B60E08AE228
:1008B00091E10E94302FA0E0B0E09C01AD012352F5
:1008C000334141095109A0E1B7E20E94DF382CE52C
:1008D00039E440E050E00E94C3383093120B20937B
:1008E000110B61E08AE291E10E94302FA0E0B0E0BC
:1008F0009C01AD012C543D4141095109AAE0B0E0F1
:100900000E94DF382CED35E040E050E00E94C33813
:10091000DA01C9010A96A11DB11D9093100B8093B5
:100920000F0B62E08AE291E10E94302FA0E0B0E07C
:100930009C01AD012858384141095109A0E9B1E0B5
:100940000E94DF3828EA3AE240E050E00E94C338D3
:1009500030930E0B20930D0B60E085E291E10E9435
:10096000302FA0E0B0E09C01AD012C55324141098F
:100970005109AEE1B0E00E94DF38B8EACB2EB8E40E
:10098000DB2EE12CF12CA70196010E94C338309395
:100990000C0B20930B0B61E085E291E10E94302F5C
:1009A000AC0160E070E09A01AB012C553241410985
:1009B0005109AEE1B0E00E94DF38A70196010E9424
:1009C000C3383093F30A2093F20A62E085E291E1A2
:1009D0000E94302FA0E0B0E09C01AD0123523341D2
:1009E00041095109A0EDB7E00E94DF3821EE37E45C
:1009F00040E050E00E94C3383093420B2093410BFB
:100A000060E080E291E10E94302F90930A0B809386
:100A1000090B61E080E291E10E94302F9093F10A8E
:100A20008093F00A62E089E00E94B8131092981156
:100A30008093991187EC9CE00E946C2CBC01990F6B
:100A4000880B990B0E94B03720E030E040E251E47F
:100A50000E947F396093FD0A7093FE0A8093FF0A1B
:100A60009093000B87EC9CE00E946C2CBC01990FCA
:100A7000880B990B0E94B03720E030E040E251E44F
:100A80000E947F396093F90A7093FA0A8093FB0AF7
:100A90009093FC0A0E94FC1380913A1190913B11B3
:100AA000A0913C11B0913D118093050B9093060BE2
:100AB000A093070BB093080B80913E1190913F11CA
:100AC000A0914011B09141118093010B9093020BC2
:100AD000A093030BB093040B60E08EEE90E10E94B4
:100AE000262B91E0811190E09093F80A61E08EEE60
:100AF00090E10E94262B91E0811190E09093F70AFB
:100B000062E08EEE90E10E94262B91E0811190E050
:100B10009093F60A63E08EEE90E10E94262B91E01E
:100B2000811190E09093F50A64E08EEE90E10E94CE
:100B3000262B91E0811190E090932C0B65E08EEED6
:100B400090E10E94262B91E0811190E090932B0B75
:100B500066E08EEE90E10E94262B91E0811190E0FC
:100B60009093440B67E08EEE90E10E94262B91E07B
:100B7000811190E09093EF0A60E085ED90E10E9492
:100B8000262B91E0811190E09093EE0A61E085EDD3
:100B900090E10E94262B91E0811190E09093ED0A64
:100BA00083E00E944B288093350B82E00E944B2803
:100BB0008093F40A84E00E944B288093EC0A47E17A
:100BC0005BE060E277E08091D10E9091D20E0E94BE
:100BD0007F1945E15BE069E277E08091D10E909169
:100BE000D20E0E947F1943E15BE062E377E08091DF
:100BF000D10E9091D20E0E947F1945E25BE06BE32B
:100C000077E08091D10E9091D20E0E947F1941E140
:100C10005BE064E477E08091D10E9091D20E0E9467
:100C20007F194FE05BE06DE477E08091D10E909109
:100C3000D20E0E947F194DE05BE066E577E080917F
:100C4000D10E9091D20E0E947F194DEF5AE06AE5C5
:100C500077E08091D10E9091D20E0E94541945E018
:100C60005BE06AE677E08091D10E9091D20E0E940F
:100C7000541941E05BE067E777E08091D10E9091F5
:100C8000D20E0E94541948EF5AE06FE777E0809146
:100C9000D10E9091D20E0E94291947EF5AE066E8D2
:100CA00077E08091D10E9091D20E0E94291946EFE3
:100CB0005AE06EE877E08091D10E9091D20E0E94BA
:100CC000291945EF5AE068E977E08091D10E9091BB
:100CD000D20E0E9429194CE25BE062EA77E0809133
:100CE000D10E9091D20E0E9429194BE25BE061EB8C
:100CF00077E08091D10E9091D20E0E94291945E3A0
:100D00005BE060EC77E08091D10E9091D20E0E9472
:100D1000291944EF5AE066EC77E08091D10E90916A
:100D2000D20E0E9429199091EB0A8091350B9817E9
:100D3000C9F08091EA0A8F5F8093EA0A982F917038
:100D400080FF0CC09093360B0E9416296093310BE4
:100D50007093320B8093330B9093340B8091350B4F
:100D60008093EB0A9091E90A8091F40A9817B1F008
:100D70008091E80A8F5F8093E80A80FF0AC00E9492
:100D800016296093E40A7093E50A8093E60A90932B
:100D9000E70A8091F40A8093E90A1FC00E9416298D
:100DA0000091E40A1091E50A2091E60A3091E70AE1
:100DB000DC01CB01801B910BA20BB30B893B9B4049
:100DC000A105B10510F40C941B0F8091F40A813039
:100DD00011F00C941B0F8093430B9091E30A8091C8
:100DE0002B0B9817B1F08091E20A8F5F8093E20A93
:100DF00080FD0AC00E9416296093DE0A7093DF0A04
:100E00008093E00A9093E10A80912B0B8093E30A90
:100E10001EC00E9416290091DE0A1091DF0A20915F
:100E2000E00A3091E10ADC01CB01801B910BA20B9F
:100E3000B30B813A9F40A105B10510F40C941F0F2C
:100E400080912B0B8111FBC781E08093300B909137
:100E5000DD0A80912C0B9817B1F08091DC0A8F5F2E
:100E60008093DC0A80FD0AC00E9416296093D80A8C
:100E70007093D90A8093DA0A9093DB0A80912C0B45
:100E80008093DD0A1CC00E9416290091D80A109197
:100E9000D90A2091DA0A3091DB0ADC01CB01801BF0
:100EA000910BA20BB30B813A9F40A105B10528F02D
:100EB00080912C0B882309F4C5C710922F0B9091B9
:100EC000D70A8091F70A9817D1F18091D60A8F5FDF
:100ED0008093D60A80FF15C00E9416296093D20A1B
:100EE0007093D30A8093D40A9093D50A0E9416294E
:100EF00060933C0B70933D0B80933E0B90933F0BA4
:100F000019C011E01093360B0E9416296093310B23
:100F10007093320B8093330B9093340B10933B0BF5
:100F20000E9416296093370B7093380B8093390B0E
:100F300090933A0B8091F70A8093D70A1DC00E94C4
:100F400016290091D20A1091D30A2091D40A309127
:100F5000D50ADC01CB01801B910BA20BB30B813DA9
:100F60009740A105B10508F471C78091F70A813057
:100F700009F06CC78093400B9091D10A8091F60ADA
:100F80009817F9F08091D00A8F5F8093D00A80FD86
:100F90000DC081E08093360B0E9416296093310BBF
:100FA0007093320B8093330B9093340B0E9416296D
:100FB0007093CF0A6093CE0A8091F60A8093D10A8B
:100FC0001BC00E941629C090CE0AD090CF0AE12CF7
:100FD000F12CDC01CB018C199D09AE09BF09813AC6
:100FE0009F40A105B10508F434C78091F60A81300D
:100FF00009F02FC780932E0B0E9416290091190B20
:1010000010911A0B20911B0B30911C0BDC01CB01B2
:10101000801B910BA20BB30B8D3D9540A105B10533
:1010200008F4D4C40E9416296093190B70931A0B0C
:1010300080931B0B90931C0B8091D10E9091D20E3C
:101040002AE23CE03A8329831C821B82BE016F5F47
:101050007F4F0E942B1A6FEC77E08DE89BE00E9497
:10106000A4318091170B9091180B0E94DE140E94FE
:10107000F0120E94F0120E94F01267ED77E08DE806
:101080009BE00E94A4318091150B9091160B0E9459
:10109000DE140E94F0120E94F0120E94F0126FED16
:1010A00077E08DE89BE00E94A4318091130B909132
:1010B000140B0E94DE140E94F0120E94F0120E9493
:1010C000F01267EE77E08DE89BE00E94A4318091FA
:1010D000250B9091260B0E94DE140E94F0120E94B4
:1010E000F0120E94F0126FEE77E08DE89BE00E9414
:1010F000A4318091110B9091120B0E94DE140E947A
:10110000F0120E94F0120E94F01267EF77E08DE873
:101110009BE00E94A43180910F0B9091100B0E94D4
:10112000DE140E94F0120E94F0120E94F0126FEF83
:1011300077E08DE89BE00E94A43180910D0B9091A7
:101140000E0B0E94DE140E94F0120E94F0120E9408
:10115000F01267E078E08DE89BE00E94A431809176
:101160000B0B90910C0B0E94DE140E94F0120E9457
:10117000F0120E94F0126FE078E08DE89BE00E9490
:10118000A4318091090B90910A0B0E94DE140E94F9
:10119000F0120E94F0120E94F01267E178E08DE8F0
:1011A0009BE00E94A43162E085E291E10E94302F31
:1011B000A0E0B0E09C01AD01235233414109510947
:1011C000A4E6B0E00E94DF3821EE37E440E050E0D2
:1011D0000E94C33869017A0157FF0EC06DE28DE8A5
:1011E0009BE00E945D3044275527BA014C195D09E8
:1011F0006E097F092AE003C02AE0B701A6018DE845
:101200009BE00E9479300E94F0120E94F0120E942E
:10121000F0126FE178E08DE89BE00E94A4314091EC
:10122000050B5091060B6091070B7091080B22E0A3
:101230008DE89BE00E94D0300E94F0120E94F012D4
:101240000E94F01268E278E08DE89BE00E94A431F1
:101250004091010B5091020B6091030B7091040BB4
:1012600022E08DE89BE00E94D0300E94F0120E94A4
:10127000F0120E94F01261E378E08DE89BE00E949A
:10128000A4316AE378E08DE89BE00E94A4314091AC
:10129000FD0A5091FE0A6091FF0A7091000B22E056
:1012A0008DE89BE00E94D0306AE378E08DE89BE017
:1012B0000E94A4310E94F0120E94F0120E94F012CB
:1012C0006CE378E08DE89BE00E94A4316AE378E06B
:1012D0008DE89BE00E94A4314091F90A5091FA0AEE
:1012E0006091FB0A7091FC0A22E08DE89BE00E946D
:1012F000D0306AE378E08DE89BE00E94A4310E9440
:10130000F0120E94F0120E94F01265E478E08DE87D
:101310009BE00E94A4314AE050E06091F80A8DE819
:101320009BE00E94C1300E94F0120E94F0120E94C5
:10133000F0126EE478E08DE89BE00E94A4314AE070
:1013400050E06091F70A8DE89BE00E94C1300E9456
:10135000F0120E94F0120E94F01267E578E08DE82A
:101360009BE00E94A4314AE050E06091F60A8DE8CB
:101370009BE00E94C1300E94F0120E94F0120E9475
:10138000F01260E678E08DE89BE00E94A4314AE02C
:1013900050E06091F50A8DE89BE00E94C1300E9408
:1013A000F0120E94F0120E94F01269E678E08DE8D7
:1013B0009BE00E94A4314AE050E060912C0B8DE844
:1013C0009BE00E94C1300E94F0120E94F0120E9425
:1013D000F01262E778E08DE89BE00E94A4314AE0D9
:1013E00050E060912B0B8DE89BE00E94C1300E9481
:1013F000F0120E94F0120E94F0126BE778E08DE884
:101400009BE00E94A4314AE050E06091350B8DE8EA
:101410009BE00E94C1300E94F0120E94F0120E94D4
:10142000F01264E878E08DE89BE00E94A4314AE085
:1014300050E06091F40A8DE89BE00E94C1300E9468
:10144000F0120E94F0120E94F0126DE878E08DE830
:101450009BE00E94A4314AE050E0609106128DE8C2
:101460009BE00E94C1300E94F0120E94F0120E9484
:10147000F01266E978E08DE89BE00E94A4314AE032
:1014800050E0609104128DE89BE00E94C1300E9400
:10149000F0120E94F0120E94F0126FE978E08DE8DD
:1014A0009BE00E94A4314AE050E0609105128DE873
:1014B0009BE00E94C1300E94F0120E94F0120E9434
:1014C000F01268EA78E08DE89BE00E94A4314AE0DF
:1014D00050E0609103128DE89BE00E94C1300E94B1
:1014E000F0120E94F0120E94F01261EB78E08DE899
:1014F0009BE00E94A4314AE050E060E08DE89BE070
:101500000E94C1300E94F0120E94F0120E94F0125C
:1015100080E094E0E6E0F2E0DF019C011D922150C2
:101520003040E1F781E08093561181E090E09093A4
:10153000551180935411909353118093521110922E
:101540004F1110924E1110925111109250116AEBDE
:1015500078E082E491E10E94A4318091170B909190
:10156000180B0E94E61410924F1110924E1149E090
:10157000842E912C90925111809250116DEB78E055
:1015800082E491E10E94A4318091150B9091160B99
:101590000E94E61410924F1110924E1152E1A52EA6
:1015A000B12CB0925111A092501160EC78E082E41D
:1015B00091E10E94A4318091130B9091140B0E9431
:1015C000E61410924F1110924E116BE1C62ED12CE1
:1015D000D0925111C092501163EC78E082E491E115
:1015E0000E94A4318091250B9091260B0E94E61455
:1015F00010924F1110924E1174E2E72EF12CF092DE
:101600005111E092501166EC78E082E491E10E9481
:10161000A4318091110B9091120B0E94E61410924C
:101620004F1110924E11EDE24E2E512C509251114D
:101630004092501169EC78E082E491E10E94A4317B
:1016400080910F0B9091100B0E94E61410924F1195
:1016500010924E11F6E36F2E712C70925111609220
:1016600050116CEC78E082E491E10E94A431809109
:101670000D0B90910E0B0E94E6140CE210E01093FB
:101680004F1100934E1110925111109250116FECA6
:1016900078E082E491E10E94A43180910B0B90915B
:1016A0000C0B0E94E61410934F1100934E11909270
:1016B00051118092501162ED78E082E491E10E9434
:1016C000A4318091F20A9091F30A0E94E6141093DB
:1016D0004F1100934E11B0925111A092501165ED2F
:1016E00078E082E491E10E94A4318091410B9091D5
:1016F000420B0E94E61410934F1100934E11D092AA
:101700005111C092501168ED78E082E491E10E949D
:10171000A4318091090B90910A0B0E94E61410935A
:101720004F1100934E11F0925111E09250116BED58
:1017300078E082E491E10E94A4318091F00A9091D6
:10174000F10A0E94E61410934F1100934E1150922B
:101750005111409250116EED78E082E491E10E94C7
:10176000A4314AE050E06091F80A82E491E10E94DD
:10177000C1304AE050E06091F70A82E491E10E94B2
:10178000C1304AE050E06091F60A82E491E10E94A3
:10179000C1304AE050E06091F50A82E491E10E9494
:1017A000C1304AE050E060912B0B82E491E10E944D
:1017B000C1304AE050E060912C0B82E491E10E943C
:1017C000C1304AE050E06091440B82E491E10E9414
:1017D000C1304AE050E06091EF0A82E491E10E945A
:1017E000C13061EE78E082E491E10E94A4314AE0E8
:1017F00050E06091EE0A82E491E10E94C1304AE03B
:1018000050E06091ED0A82E491E10E94C1301093B2
:101810004F1100934E11709251116092501163EE6E
:1018200078E082E491E10E94A4314AE050E06091C6
:10183000061282E491E10E94C1304AE050E06091DA
:10184000041282E491E10E94C1304AE050E06091CC
:10185000051282E491E10E94C1304AE050E06091BB
:10186000031282E491E10E94C1304AE050E060E05E
:1018700082E491E10E94C13061EE78E082E491E17E
:101880000E94A4314AE050E06091350B82E491E17E
:101890000E94C1304AE050E06091F40A82E491E194
:1018A0000E94C1304AE050E06091EC0A82E491E18C
:1018B0000E94C13008E510E010934F1100934E11C3
:1018C00010925111109250116BED78E082E491E189
:1018D0000E94A4316091050B7091060B8091070B5B
:1018E0009091080B41E050E00E94FC1410934F11BE
:1018F00000934E11909251118092501166EE78E053
:1019000082E491E10E94A4316091010B7091020B7D
:101910008091030B9091040B41E050E00E94FC1475
:1019200010934F1100934E11B0925111A09250118B
:1019300069EE78E082E491E10E94A43140910202D4
:1019400050910302052E000C660B770B21E082E418
:1019500091E10E9479306CEE78E082E491E10E949E
:10196000643010934F1100934E11D0925111C092D8
:1019700050116FEE78E082E491E10E94A431609111
:10198000FD0A7091FE0A8091FF0A9091000B42E0DF
:1019900050E00E94FC1410934F1100934E11F092EE
:1019A0005111E092501162EF78E082E491E10E94DF
:1019B000A4316091F90A7091FA0A8091FB0A909122
:1019C000FC0A42E050E00E94FC145DD60E941629F9
:1019D0000091210B1091220B2091230B3091240BAD
:1019E000DC01CB01801B910BA20BB30B8938934117
:1019F000A105B105B8F10E9416296093210B7093DF
:101A0000220B8093230B9093240B0091D30C109105
:101A1000D40C6FE777E0C8010E943D18FC01892BC8
:101A200051F4C8010E941A18FC01892B61F08FE75C
:101A300097E09383828382E090E09583848385EFAF
:101A400098E0978386838091D30C9091D40C2AE2FE
:101A50003CE03A8329831C821B82BE016F5F7F4F6B
:101A60000E942B1A0E94162960931D0B70931E0B67
:101A700080931F0B9093200B7E0149E0E40EF11C34
:101A800098E5C92E92E0D92E20E2A22E26E0B22EB1
:101A90008E010F5F1F4F3AE0932E8AE29CE00E9476
:101AA000F624892BA9F1FC82EB82DE82CD82188696
:101AB0001F82BA82A982CF59DD4F19830883C1568C
:101AC000D2408AE29CE0CD59DD4F99838883C3568A
:101AD000D240CB59DD4F1882C556D240CA59DD4F8E
:101AE0001882C656D240C959DD4F19830883C7569C
:101AF000D240C759DD4F9882C956D240CE018F5986
:101B00009D4F0E94AA19DC018D919C91892BB1F007
:101B10000E94162940901D0B50901E0B60901F0BC9
:101B20007090200BDC01CB0184199509A609B70937
:101B30008C329140A105B10508F4AFCF8091430BE1
:101B4000813009F096C01092430B0E9416296B0158
:101B50007C0188EE882E83E0982EA12CB12C0E9467
:101B60001629DC01CB018C199D09AE09BF0961E082
:101B700079E088389341A105B10508F061C08DE88E
:101B80009BE00E94A4316AE378E08DE89BE00E942C
:101B9000A4310E9416296C197D098E099F09A5019F
:101BA00094010E94E938BA01A9012AE0CE018F59B7
:101BB0009D4F0E94DB2F6AE079E0CE0101960E94E2
:101BC0002330CB59DD4F88819981C556D240CF59FA
:101BD000DD4F68807980C156D2400D811E8161142D
:101BE000710409F44BC10097A9F0080F191FB8013F
:101BF000CE0101960E947516882309F43FC1298100
:101C00003A818D819E81B301820F931F0E94713CA6
:101C10001E830D83CE010196E8D4CE0101960E9469
:101C2000D62FCE018F599D4F0E94D62F6AE378E0C0
:101C30008DE89BE00E94A431D3D4D2D4D1D48FCFED
:101C40008DE89BE00E94A4316AE378E08DE89BE098
:101C50000E94A43160E379E08DE89BE00E94A4310A
:101C60006AE378E08DE89BE00E94A431B9D4B8D44F
:101C7000B7D480910402909105020197C9F5609153
:101C8000020270910302CB01C659DD4F6883CA5628
:101C9000D240C559DD4F7883CB56D240BBD7809117
:101CA000410B9091420BC659DD4F6881CA56D24014
:101CB000C559DD4F7881CB56D24068177907A0F41B
:101CC0009C01261B370B44E6429FC001439F900DA9
:101CD00011240E941B3A6F3071050CF0CEC3109294
:101CE000050210920402C9C39B01281B390BEBCFDC
:101CF0008091400B813009F082C061E479E0CE012F
:101D00008F599D4F0E9423306AE479E0CE010196FD
:101D10000E942330BE016F597D4FCE0101960E9473
:101D2000881CCE0101960E94D62FCE018F599D4F5F
:101D30000E94D62F63E679E0CE0101960E942330FF
:101D400060E0CE0101960E941A32CE0101960E94F7
:101D5000D62F61E779E0CE0101960E94233061E041
:101D6000CE0101960E941A32CE0101960E94D62F12
:101D700060E879E0CE0101960E94233061E0CE0157
:101D800001960E941A32CE0101960E94D62F61E080
:101D900079E08DE89BE00E94A4316AE378E08DE869
:101DA0009BE00E94A4310E94162900913C0B1091E7
:101DB0003D0B20913E0B30913F0B601B710B820B52
:101DC000930B28EE33E040E050E00E94E938BA017E
:101DD000A9012AE0CE0101960E94DB2FCE010196D7
:101DE00004D4CE0101960E94D62F6AE378E08DE8F4
:101DF0009BE00E94A431F4D3F3D3F2D33EC380918D
:101E00003B0B813009F03FC00E9416290091370B2F
:101E10001091380B2091390B30913A0BDC01CB013A
:101E2000801B910BA20BB30B80369A4EA105B10516
:101E300008F458C228C01092430B0C94ED0610927F
:101E4000300B05C881E080932F0B39C81092400BEE
:101E500093C80E941629DC01CB018C199D09AE099B
:101E6000BF09813A9F40A105B10508F4C5C880911A
:101E7000F60A8111C1C810922E0BBEC8CE01019680
:101E80000E94C42FC7CE9091360B8091350B9130B4
:101E900009F078C0813009F0C4C10E941629009170
:101EA000310B1091320B2091330B3091340BDC014C
:101EB000CB01801B910BA20BB30B80319742A10584
:101EC000B10510F588EB9BE0A5D663E679E0CE017D
:101ED00001960E94233060E0CE0101960E941A32E2
:101EE000CE0101960E94D62F61E779E0CE010196DE
:101EF0000E94233060E0CE0101960E941A32CE018A
:101F000001960E94D62F20C060E879E0CE010196AC
:101F10000E94233060E0CE0101960E941A32CE0169
:101F200001960E94D62F6BED79E0CE0101960E94BA
:101F3000233060E0CE0101960E941A32CE01019654
:101F40000E94D62F1092360B61E479E0CE018F59B2
:101F50009D4F0E94233064EE79E0CE0101960E94ED
:101F60002330BE016F597D4FCE0101960E94881C1F
:101F7000CE0101960E94D62FCE018F599D4F0E940F
:101F8000D62F7BC291114DC1813009F04AC1809199
:101F9000300B813049F080912F0B813029F08091F6
:101FA0002E0B813009F0AEC063E679E0CE010196D8
:101FB0000E94233061E0CE0101960E941A32CE01C8
:101FC00001960E94D62F61E779E0CE0101960E942A
:101FD000233061E0CE0101960E941A32CE010196B3
:101FE0000E94D62F60E879E0CE0101960E9423304E
:101FF00061E0CE0101960E941A32CE0101960E9444
:10200000D62F6BED79E0CE0101960E94233061E07E
:10201000CE0101960E941A32CE0101960E94D62F5F
:102020008091300B813029F080912F0B813009F0A5
:102030005FC080912D0B833008F050C068EE73E0D4
:1020400080E090E00E94DE2861E479E0CE018F59C3
:102050009D4F0E94233062E07AE0CE0101960E94FB
:102060002330BE016F597D4FCE0101960E94881C1E
:10207000CE0101960E94D62FCE018F599D4F0E940E
:10208000D62F68EB7BE080E090E00E94DE28809114
:102090002D0B8F5F80932D0B81E08093360B0E9478
:1020A00016296093310B7093320B8093330B90930E
:1020B000340B64E08EEE90E10E94262B91E08111BA
:1020C00090E090932C0B65E08EEE90E10E94262B21
:1020D00091E0811190E090932B0BCFC161E479E006
:1020E000CE018F599D4F0E94233067E17AE035CFB2
:1020F00061E479E0CE018F599D4F0E94233069E25F
:102100007AE02BCF8111B9C161E479E0CE018F591A
:102110009D4F0E94233068E47AE0CE0101960E9430
:102120002330BE016F597D4FCE0101960E94881C5D
:10213000CE0101960E94D62FCE018F599D4F0E944D
:10214000D62F0091020210910302C80163D50E94AC
:102150001629C090270BD090280BE090290BF09007
:102160002A0BAB01BC014C195D096E097F098091F6
:10217000000290910102092E000CAA0BBB0B8417E0
:102180009507A607B70708F078C10E941629609343
:10219000270B7093280B8093290B90932A0B809127
:1021A000250B9091260B803743E0940730F08F3851
:1021B00053E09507E0F4C80132C020E733E0D901CD
:1021C000A81BB90BA536B10518F081E090E002C05C
:1021D00084EF91E09093010280930002C80101977F
:1021E000803ABFE09B0708F048C1049714C08E589E
:1021F0009340CD9718F081E090E002C084EF91E029
:102200009093010280930002003AEFE01E0708F06D
:1022100034C1C80105969093030280930202FAD458
:102220002CC181112AC180ED97E0F4D463E679E0F6
:10223000CE0101960E94233061E0CE0101960E94FA
:102240001A32CE0101960E94D62F61E779E0CE01C5
:1022500001960E94233061E0CE0101960E941A325D
:10226000CE0101960E94D62F60E879E0CE0101965A
:102270000E94233061E0CE0101960E941A32CE0105
:1022800001960E94D62F6BED79E0CE0101960E9457
:10229000233061E0CE0101960E941A32CE010196F0
:1022A0000E94D62F61E479E0CE018F599D4F0E94A4
:1022B000233069E57AE0CE0101960E942330BE0109
:1022C0006F597D4FCE0101960E94881CCE01019668
:1022D0000E94D62FCE018F599D4F0E94D62F10926B
:1022E0002D0BCBC061E079E08DE89BE00E94A4312A
:1022F0006AE378E08DE89BE00E94A431C090370B40
:10230000D090380BE090390BF0903A0B0E941629D0
:1023100020E6C20E2AEED21EE11CF11CA701960196
:10232000261B370B480B590BCA01B90128EE33E0C5
:1023300040E050E00E94E938BA01A9012AE0CE014C
:1023400001960E94DB2FCE0101964FD1CE0101965E
:102350000E94D62F6AE378E08DE89BE00E94A431CA
:102360003FD13ED13DD188EB9BE054D48091410BCD
:102370009091420B80399140B8F163E679E0CE014B
:1023800001960E94233060E0CE0101960E941A322D
:10239000CE0101960E94D62F60E879E0CE01019629
:1023A0000E94233060E0CE0101960E941A32CE01D5
:1023B00001960E94D62F61E779E0CE0101960E9436
:1023C000233060E0CE0101960E941A32CE010196C0
:1023D0000E94D62F61E479E0CE018F599D4F0E9473
:1023E00023306EE879E0B9CD61E479E0CE018F5910
:1023F0009D4F0E9423306DEA79E0CE0101960E9444
:102400002330BE016F597D4FCE0101960E94881C7A
:10241000CE0101960E94D62FCE018F599D4F0E946A
:10242000D62F63E679E0CE0101960E94233061E069
:10243000CE0101960E941A32CE0101960E94D62F3B
:1024400061E779E0CE0101960E94233061E0CE0180
:1024500001960E941A32CE0101960E94D62F60E8A2
:1024600079E0CE0101960E94233061E0CE01019611
:102470000E941A32CE01019682CDC559DD4F0FB6AA
:10248000F894DEBF0FBECDBFDF91CF911F910F91AA
:10249000FF90EF90DF90CF90BF90AF909F908F9084
:1024A0007F906F905F904F90089590916311992362
:1024B00039F08EBD00000DB407FEFDCF8EB5089536
:1024C00028E030E040E8E0916611F091671150811A
:1024D00090916D11909595239083E0916411F09106
:1024E000651190916C11542F582319F05081952B40
:1024F00003C05081909595239083E0916611F091EF
:102500006711508190916D11952B908346952150C4
:102510003109C9F60895CF92DF92EF92FF920F939F
:102520001F93CF93DF93EC018B010E9416296887DC
:1025300079878A879B87E881F9810284F385E02D7A
:10254000CE01199597FD05C0F801808381E090E0E8
:1025500017C00E941629C884D984EA84FB84DC0150
:10256000CB018C199D09AE09BF09CC80DD80EE80BE
:10257000FF808C159D05AE05BF05E8F280E090E078
:10258000DF91CF911F910F91FF90EF90DF90CF904F
:102590000895FC01A089B18982E08C93A485B5855A
:1025A0001C92A685B78580E18C93108EA489B5898D
:1025B00086E08C93A289B3898C9180618C93A289E7
:1025C000B3898C9188608C93A289B3898C9180683F
:1025D0008C930288F389E02D80818F7D808308951C
:1025E0006FEF8DE89BE00C943525FC01448155810B
:1025F000608171818DE89BE00C94992FCF93C82F57
:1026000080915E118F3F51F1E0916811F091691155
:10261000808190916E11982B9083E0916A11F091D6
:102620006B11208190916F11909592239083E0918E
:102630006811F0916911208190916E11909592230B
:1026400090838C2F32DFE0916811F09169119081B5
:1026500080916E11892B8083CF91089560915C11D8
:1026600087EC9CE00E946F2E60E087EC9CE00E946B
:10267000AF2C6C2F87EC9CE00E94AF2C87EC9CE089
:10268000CF910C946D2EFF920F931F93CF93DF93F6
:1026900081E2B4DF80E0B2DF8FE7B0DF82E2AEDF5D
:1026A00080E0ACDF87E0AADF80915E118F3F71F19F
:1026B000E0916811F0916911908180916E11892BE0
:1026C0008083E0916A11F0916B11908180916F117C
:1026D000892B8083E0916811F0916911908180913C
:1026E0006E11809589238083C6E0D2E08991DDDE7A
:1026F00086E0C630D807D1F7E0916811F0916911F2
:10270000908180916E11892B80832CC0F090B8004D
:102710008CE08093B800C6E0D2E060915C1187EC59
:102720009CE00E946F2E60E487EC9CE00E94AF2C3E
:1027300000E010E0FE01E00FF11F608187EC9CE0FB
:102740000E94AF2C0F5F1F4F0031110599F787ECE6
:102750009CE00E946D2E609686E0C630D807E9F6B0
:10276000F092B800DF91CF911F910F91FF900895E3
:1027700090918C0B9111FCCF91E090938C0B9093E6
:102780008B0B2FEF20938A0B1092890B260F20932F
:10279000880B9093870B9091870B880F892B8093E0
:1027A000870B8091860B813061F41092860B8091AB
:1027B000870B8093BB008091BC0083FDF8CF85EC34
:1027C00001C085EE8093BC0080918C0B8130E1F3D9
:1027D0008091890B861710F46091890BA6E6BBE007
:1027E00026E43BE0F9018E2F821B861718F48D91A9
:1027F0008193F9CF862F08958091381190913911E6
:10280000009749F0DC01ED91FC910680F781E02D05
:102810001995811102C080E00895E0913811F0917E
:102820003911428153816481758140933A115093EB
:102830003B1160933C1170933D1146815781608537
:10284000718540933E1150933F11609340117093F6
:1028500041110895CF93DF938091381190913911F0
:10286000892B21F084E391E10E9498248091361114
:10287000909137118230910509F445C06CF40097AE
:1028800009F47BC0019709F08EC082E290E00E94BB
:102890004A3AFC0184E43DC006970CF084C082E211
:1028A00090E00E944A3AFC0180E7828786E698E73A
:1028B000948783878FE0858780E090E0A4E3B2EC83
:1028C00086879787A08BB18B80E090E0AFE2B3E47E
:1028D000828B938BA48BB58B80E09FEFAFE7B7E43F
:1028E000868B978BA08FB18F40E050E068EC72E44C
:1028F000428F538F648F758F868F978FA0A3B1A35C
:1029000086E296E033C082E290E00E944A3AFC01FF
:1029100085E4828780E094E2948783878FE08587CF
:1029200080E090E0A4E3B2EC86879787A08BB18B20
:1029300080E090E0AFE2B3E4828B938BA48BB58B05
:1029400080E09FEFAFE7B7E4868B978BA08FB18FC6
:1029500040E050E068EC72E4428F538F648F758FD3
:10296000868F978FA0A3B1A382E396E091838083A3
:10297000F0933911E093381116C0C2E5D6E0899181
:102980009991909337118093361164DF882319F061
:1029900033DF811108C086E0C835D80781F784E3AA
:1029A00091E10E94982481E02091381130913911F1
:1029B000232B09F480E0DF91CF910895AC0160E012
:1029C00070E02AE08DE89BE00C947930CF93DF93A0
:1029D000AC0160E070E02AE082E491E10E9479308D
:1029E000EC016CEE78E082E491E10E9464308C0F9F
:1029F0009D1FDF91CF910895CF93DF93242FAB01DB
:102A0000BC0182E491E10E94D030EC016CEE78E0F0
:102A100082E491E10E9464308C0F9D1FDF91CF9181
:102A200008959F92AF92BF92CF92DF92EF92FF9262
:102A30000F931F93CF93DF9300D000D0CDB7DEB7B5
:102A4000FC019085992309F4D1C06B017F0191505D
:102A500090875F0182E0A80EB11CC50161D2C5015B
:102A60000E94FB318B3521F08B3709F491C09AC05D
:102A7000F70100811181B80184E090E00E94C93122
:102A8000009739F0FC0111830083138212828C01BC
:102A900011C08091751181110BC0109272111092AA
:102AA0007111109274111092731181E0809375115D
:102AB00001E711E16BE5C501A0D2882309F448C004
:102AC0006DE5C5019AD2811154C086E0982E1A8214
:102AD0001982BE016F5F7F4FC701A3DF8823C1F159
:102AE000F8016081718188E090E00E94C931DC01C9
:102AF000892B39F011961C921E9213961C921E92ED
:102B00001297F801228133812115310551F0F90125
:102B100080819181009711F09C01F9CFB183A0834E
:102B200003C0F801B383A283109791F0FE013196A0
:102B30001296892D01900D928A95E1F76DE5C501F8
:102B40005CD2811116C06CE2C50157D28111BFCF92
:102B50008091751181110BC0109272111092711138
:102B6000109274111092731181E08093751101E736
:102B700011E1F80180819181892B11F410E031C0BD
:102B800086E090E0F601918380831383028328C05E
:102B9000C701E0D3FC0120813181232B79F327E0A9
:102BA00030E019C0C5010E94FB3111E0873219F0F5
:102BB000823209F010E0C7017BD20097F9F21123AD
:102BC00041F022E030E0F601318320839383828359
:102BD00008C021E030E0F6013183208393838283B3
:102BE00011E0F70180858F5F808701C010E0812FA1
:102BF00026960FB6F894DEBF0FBECDBFDF91CF9102
:102C00001F910F91FF90EF90DF90CF90BF90AF900A
:102C10009F900895FF920F931F93CF93DF93EC0142
:102C200008EB10E0F801F0808CE080836091701177
:102C300087EC9CE00E946F2E60E487EC9CE00E9491
:102C4000AF2CBE0184E0769567958A95E1F787EC15
:102C50009CE00E94AF2CBE0194E0660F771F9A950E
:102C6000E1F787EC9CE00E94AF2C87EC9CE00E948F
:102C70006D2EF801F082DF91CF911F910F91FF909F
:102C80000895FC019C012E5F3F4F8FEF41E391912E
:102C9000892798E087FF03C0880F842701C0880F29
:102CA0009150C1F7E217F30791F70895FC012481D1
:102CB0003581232B31F421E061157105A1F0FB0171
:102CC00008C0FC01808191816115710531F421E01A
:102CD000FC018081882339F005C00E94683C21E016
:102CE000892B09F020E0822F08950F931F93CF9333
:102CF000DF93EC0188819981009729F02A813B813B
:102D00002617370788F48B016F5F7F4F0E94773B50
:102D1000009761F0998388831B830A832C813D810E
:102D2000232B11F4FC01108281E001C080E0DF91CF
:102D3000CF911F910F910895089580E090E008953C
:102D4000CF93DF93EC01888199810E9464302A81BE
:102D50003B81820F931F9B838A83DF91CF910895DC
:102D60000F931F93CF93DF93CDB7DEB766970FB660
:102D7000F894DEBF0FBECDBF8C01CB011E8AFE01D1
:102D800076962AE030E0B9010E941B3A90E3980F52
:102D90009293CB010097B9F7BF01C801D1DF6696C6
:102DA0000FB6F894DEBF0FBECDBFDF91CF911F915C
:102DB0000F9108958F929F92AF92BF92EF92FF92E0
:102DC0000F931F93CF93DF93CDB7DEB766970FB600
:102DD000F894DEBF0FBECDBF7C011E8A8E010A5E55
:102DE0001F4F8AE0882E912CA12CB12CCB01BA0167
:102DF000A50194010E94E938942F852F605DF801A8
:102E000062938F01A901692F782F41155105610542
:102E1000710561F7BF01C70193DF66960FB6F8949D
:102E2000DEBF0FBECDBFDF91CF911F910F91FF90FD
:102E3000EF90BF90AF909F908F900895CF93DF93C6
:102E4000EC01888199810E945D302A813B81820F4B
:102E5000931F9B838A83DF91CF910895FF920F93F5
:102E60001F93CF93DF936115710541F462EA7AE015
:102E7000DF91CF911F910F91FF9062CF8B01EC01F9
:102E800062E2CE01DBDFF80161918F01662351F030
:102E9000E3E9FAE0F080FF20A1F39181961751F069
:102EA0003296F8CF62E2CE01DF91CF911F910F9160
:102EB000FF90C4CF6CE5CE01C1DF6F2DE2CF862F2E
:102EC000413208F040E2642F53DC10929811809355
:102ED00099110895109298111092991110929611CB
:102EE0001092971110928C0B81E080938B0B1092B3
:102EF000860B61E084E10E94732861E085E10E9415
:102F00007328E9EBF0E080818E7F808380818D7F64
:102F1000808388E48093B80085E48093BC000895A2
:102F20000F931F93CF93DF931F92CDB7DEB78C0122
:102F3000C8010E94FB318D3059F02CF48950823049
:102F400008F055C005C0803219F08F3231F04FC003
:102F5000F801838182831382EBCFF8018381811191
:102F60000AC0808191811982BE016F5F7F4FD3DAE1
:102F70008981F8018383F80183818A3219F08F32C5
:102F800069F135C0F8011382F801838182831382CD
:102F9000C8010E94FB31882351F1C8010E94FB3116
:102FA0008A3291F7F801838181110AC08081918171
:102FB0001982BE016F5F7F4FAEDA8981F80183838A
:102FC000F80183818F3201F7F80113821282B0CFAA
:102FD000C8010E94FB318A3009F4AACFF80183812D
:102FE00082831382C8010E94FB318111F1CF0F90BF
:102FF000DF91CF911F910F9108950F931F93CF935E
:10300000DF931F92CDB7DEB78C01698389DFC801DA
:103010000E94FB316981861306C0F8018381828397
:10302000138281E001C080E00F90DF91CF911F916A
:103030000F910895CF93DF93EC01688179818AE045
:1030400090E00E94C931009729F0FC0111821082A2
:1030500015821482EA81FB81309751F02081318101
:103060002115310511F0F901F9CF9183808302C058
:103070009B838A83DF91CF9108950F931F93CF9302
:10308000DF938B01FC01C281D381209759F06A81C3
:103090007B81C8010E94683C892B21F00990D8816E
:1030A000C02DF3CFCE01DF91CF911F910F910895E5
:1030B000AF92BF92CF92DF92EF92FF920F931F9346
:1030C000CF93DF931F92CDB7DEB78C01DC0116964C
:1030D000AD90BC901797F501C280D380868197810F
:1030E000C80ED91E7801F2E0EF0EF11CC70118DFFF
:1030F000C7010E94FB31282F8732C9F18232B9F112
:1031000080ED820F8A3078F081EA820F8C3158F09E
:103110008FEB820F8A3138F02B3229F083ED820F4A
:10312000823008F070C0F801858184831582D50152
:1031300016968D919C911797AC014F5F5F4F149637
:103140006D917C9115976417750760F012966D91DB
:103150007C911397FB01E80FF91F17965C934E9330
:1031600016972083C7010E94FB31282FC9CFF80191
:10317000858184831582C70129830E94FB31982FA2
:103180002981882309F43FC0D80115968C911597A1
:1031900014968C93149715961C929217A1F19C3556
:1031A000B9F4C70129830E94FB31982FE7E9FAE0BF
:1031B00029818081882331F0891302C0918102C066
:1031C0003296F7CF9923F9F0F8018581848315822F
:1031D000D50116964D915C911797BA016F5F7F4F9D
:1031E0001496ED91FC911597E617F70720F21296C9
:1031F000ED91FC911397E40FF51F17967C936E9356
:1032000016979083B8CFF501868197819C012F5F37
:103210003F4F448155814217530760F042815381EB
:10322000FA01E80FF91FD50117963C932E931697D4
:10323000108202C0C12CD12CC6010F90DF91CF911A
:103240001F910F91FF90EF90DF90CF90BF90AF90C4
:103250000895EF92FF920F931F93CF93DF938C010A
:10326000EB017A010ADFFC01892B39F4C801E2DEA7
:10327000FC01892B89F0D383C283D7018C9190E024
:10328000A0E0B0E024E030E0358324838683978398
:10329000A087B18781E001C080E0DF91CF911F91CD
:1032A0000F91FF90EF900895EF92FF920F931F936D
:1032B000CF93DF938C01EB017A01DFDEFC01892BD8
:1032C00039F4C801B7DEFC01892B89F0D383C283AE
:1032D000E70188819981AA81BB8128E030E03583AC
:1032E000248386839783A087B18781E001C080E033
:1032F000DF91CF911F910F91FF90EF900895EF9282
:10330000FF920F931F93CF93DF938C01EB017A0110
:10331000B4DEFC01892B39F4C8018CDEFC01892B59
:1033200089F0D383C283D7018D919C91A0E0B0E056
:1033300024E030E03583248386839783A087B18798
:1033400081E001C080E0DF91CF911F910F91FF904C
:10335000EF9008959F92AF92BF92CF92DF92EF923B
:10336000FF920F931F93CF93DF9300D000D0CDB780
:10337000DEB7D82EC92E082F192FF801819191910F
:103380008F010E94D8317C016BE7C80136DE8823AB
:1033900009F43BC06DE7C80130DE811146C086E00C
:1033A000982E8D2D9C2D84DE5C01892B71F16AE3B2
:1033B000C80123DE882349F11A821982BE016F5F9A
:1033C0007F4F8D2D9C2D2DDB8823F9F0B501C70192
:1033D00054DE009739F4C7012DDE0097B1F0FC01EF
:1033E000B382A282FE013196DC011496892D0190F0
:1033F0000D928A95E1F76DE7C801FFDD811115C0D7
:103400006CE2C801FADD8111CCCF8091811181116C
:103410000EC010927E1110927D11109280111092A8
:103420007F1181E08093811102C0C70102C08DE746
:1034300091E126960FB6F894DEBF0FBECDBFDF91A7
:10344000CF911F910F91FF90EF90DF90CF90BF90A1
:10345000AF909F9008950F931F93CF93DF938C01AC
:10346000EB016BE7CE01EADCF80102811381011563
:10347000110591F0F80162817381CE01EFDC6AE3FE
:10348000CE01DCDCBE01C801049611D0F801008138
:1034900011810115110539F46DE7CE01DF91CF914E
:1034A0001F910F91CBCC6CE2CE01C8DCE0CF2F9204
:1034B0003F924F925F926F927F928F929F92AF92C4
:1034C000BF92CF92DF92EF92FF920F931F93CF9311
:1034D000DF93CDB7DEB766970FB6F894DEBF0FBEA9
:1034E000CDBFDC01ED91FC9111973197E830F105EA
:1034F00008F0F5C11B018C018827EE58FF4F8F4F54
:103500000C942E3AFD01C280D380E480F580A7019F
:103510009601C701B6010E94AA37882319F062EB11
:103520007AE073C020E030E0A901C701B6010E9433
:10353000AA3787FF07C06DE2C10180DCF7FAF0947B
:10354000F7F8F09420E030E0A901C701B6010E942D
:10355000AA37882309F45CC0A7019601C701B60108
:103560000E941B39A70196010E94AA37811150C001
:1035700069EB7AE04AC0FD01028113816BE5C1016C
:103580005DDCD80112960D911C9113970115110560
:1035900051F0B101C80102968ADFF8010081118162
:1035A0000115110521F46DE5C10148DC98C16CE2FB
:1035B000C10144DCEBCF12968D919C9113974BDFA8
:1035C0008EC1FD0162817381C10148DC88C1129600
:1035D0006D917C91139719C06DE2C1012FDCF80148
:1035E0004281538164817581C101E4DB78C1FD01B1
:1035F00082819381A481B581892B8A2B8B2B19F42D
:103600006CEA7AE002C067EA7AE0C10199DB67C13F
:1036100020E836E948E15BE4C701B6010E94133AAD
:1036200087FD56C1A12CB12C00E210E01A8A198A3C
:10363000F501E850F94F2489358946895789C70132
:10364000B6010E94133A87FD13C0F501E052F94F0D
:103650002489358946895789C701B6010E940F38E8
:103660006B017C0189899A89800F911F9A8B898BC4
:103670001595079594E0A91AB108A8EEAA16AFEF20
:10368000BA06B1F699249A9420E030E0A901C70166
:10369000B6010E94133A1816B4F52CEA35EC47E24D
:1036A00057E3C701B6010E94AA37181664F19FEFCD
:1036B000991649F1B92DE4E0BE0250011124F5013B
:1036C000E853F94F2081318142815381C701B6010E
:1036D0000E94AA3787FF13C0F501E850F94F2081F7
:1036E000318142815381C701B6010E940F386B01BD
:1036F0007C0189899A89801B910B9A8B898B1595FE
:1037000007959A94D4CFC701B6010E94E7394B01BF
:103710005C012B013C0106E080E492E4AFE0B0E004
:103720008B8B9C8BAD8BBE8B102F0FEF010F9AE014
:103730004916510461047104C8F06B897C898D8934
:103740009E892AE030E040E050E00E94E9382B8B6F
:103750003C8B4D8B5E8BC301B2012AE030E040E030
:1037600050E00E94E93829013A01DECFC501B401D9
:103770000E94AE379B01AC01C701B6010E941A3905
:103780006B017C016B897C898D899E890E94AE3793
:103790009B01AC01C701B6010E940F382B013C010F
:1037A0000E94E7396B017C010E94AE379B01AC019E
:1037B000C301B2010E941A399B01AC010E941B395E
:1037C0000E94E739C60ED71EE81EF91E8B899C8918
:1037D000AD89BE89C816D906EA06FB06F8F09FEF48
:1037E000891A990AA90AB90AA989BA89AB2B99F049
:1037F000BAE08B169104A104B10468F0E989FA8952
:103800003196FA8BE98BC12CD12C7601812C912C2D
:103810005401839403C0C12CD12C76012AE0422E9E
:10382000512C612C712CC701B601A30192010E9499
:10383000E938672B682B692B99F0012FB501A4019A
:10384000C101B8DA112351F1188A4E01F0E18F0E4F
:10385000911C54019AE0492E512C612C712C06C008
:1038600011165CF769017A011150DDCF015068F043
:10387000C701B601A30192010E94E938605DD4013D
:103880006E934D0169017A01F1CFB501611B710998
:103890008EE2FB018293BF01C10152DA89899A89C4
:1038A00097FF0AC066EB7AE0C1014ADA69897A8932
:1038B00071956195710909C0A989BA89AB2B79F015
:1038C00065E6C101BBDA69897A89C10149DA07C0B5
:1038D00000E210E085E0982E1A8A198AD5CE669605
:1038E0000FB6F894DEBF0FBECDBFDF91CF911F9111
:1038F0000F91FF90EF90DF90CF90BF90AF909F908F
:103900008F907F906F905F904F903F902F90089591
:10391000CF92DF92EF92FF920F931F93CF93DF939B
:10392000EC018B010E941629C0908911D0908A1158
:10393000E0908B11F0908C11DC01CB018C199D096A
:10394000AE09BF09853C9940A105B10510F1C80138
:103950000E94F5126AE378E08DE89BE00E94A431B2
:10396000CE010E94F5126AE378E08DE89BE00E94A8
:10397000A4310E94F0120E94F0120E94F0120E94E4
:1039800016296093891170938A1180938B119093FB
:103990008C11DF91CF911F910F91FF90EF90DF90ED
:1039A000CF9008950F931F93CF93DF93DC01FB011A
:1039B00055968C915597823081F0833019F1813082
:1039C00051F514968D919C911597BC01641B750B54
:1039D000AB0141505109BF0181C014966D917C919A
:1039E0001597CB018E1B9F0BFC0116968D919C9118
:1039F0001797BC01641B750BAB0141505109E21BC9
:103A0000F30B09C016966D917C9117976E1B7F0B77
:103A1000621B730B63C057FD1CC116968D919C9160
:103A20001797481759070CF014C1F7FF04C02E0F61
:103A30003F1FE0E0F0E014968D919C911597BF0137
:103A4000620F731F861797071CF49C012E1B3F0BF8
:103A5000121613060CF0FDC0CA0157FD079663E06D
:103A6000959587956A95E1F79695982F882797956C
:103A70008795E80FF91FEA5FFD4F4770552781E0F2
:103A800090E001C0880F4A95EAF7482F01301105F0
:103A900041F088F00230110509F0DBC02E0F3F1F06
:103AA00015C02E0F3F1FE217F30709F4D2C0808123
:103AB000842B8193F8CF80952E0F3F1FE217F307D9
:103AC00009F4C7C0908198239193F8CFE217F307C8
:103AD00009F4BFC0808184278193F8CF57FDB9C016
:103AE00014968D919C911597481759070CF0B1C009
:103AF00077FF04C0260F371F60E070E016968D91A7
:103B00009C911797FB01E20FF31F8E179F071CF480
:103B10009C01261B370B121613060CF09AC0A22F1D
:103B2000862F86958695869590E8899F400D511D34
:103B30001124FA01EA5FFD4F6770A9F198E0961B26
:103B4000492F50E0EA01C85ED84F8881291790F4C8
:103B5000421B51092FEF30E002C0359527954A9559
:103B6000E2F782230130110541F068F002301105BF
:103B700089F06FC00130110519F42081822B0CC02F
:103B80000130110520F480952081822305C0023088
:103B9000110531F4208182278083A91708F459C0C8
:103BA000A91BE058FF4FA83048F10230110559F425
:103BB000EF018A2F988190959883C058DF4F8850E5
:103BC0008830C0F731C081E00130110509F080E094
:103BD0008195EF019A2F8883C058DF4F9850983015
:103BE000D0F788EF8A0F86958695869560E8869F40
:103BF000E00DF11D1124E058FF4FA770AA2349F1F1
:103C0000B0E0A05FB84F8C910130110529F038F079
:103C100002301105D9F01DC09081892B03C0809519
:103C200090818923808315C088EF8A0F86958695B9
:103C3000869570E8879FE00DF11D1124E058FF4F35
:103C4000A77039F0B0E0A05FB84F8C9190818927C0
:103C5000E9CFDF91CF911F910F910895FC0177FD7E
:103C60009AC080859185681779070CF094C057FD3C
:103C700092C082859385481759070CF08CC08589BE
:103C8000823009F07CC084819581DC01A61BB70BD2
:103C9000BD016150710986819781FC01E41BF50B20
:103CA000AF01415051090AC0813041F484819581AE
:103CB000841B950BAB01BC016150710921303105AA
:103CC00029F008F122303105E1F10895FA0157FD9C
:103CD0003796A3E0F595E795AA95E1F7F695FE2FBF
:103CE000EE27F795E7956E0F7F1FFB01EA5FFD4F0B
:103CF0004770552781E090E001C0880F4A95EAF7A8
:103D00009081892B3AC0FA0157FD379623E0F5954B
:103D1000E7952A95E1F7F695FE2FEE27F795E795BB
:103D20006E0F7F1FFB01EA5FFD4F4770552781E053
:103D300090E001C0880F4A95EAF780959081892329
:103D40001CC0FA0157FD379683E0F595E7958A95F3
:103D5000E1F7F695FE2FEE27F795E7956E0F7F1F9B
:103D6000FB01EA5FFD4F4770552781E090E001C0FD
:103D7000880F4A95EAF790818927808308958330D8
:103D800009F092CF86819781861B970BBA01AC010F
:103D90004150510993CF08950895FC016370658BDC
:103DA0008481958126813781613039F0633029F033
:103DB000918780873387228708953187208793876B
:103DC000828708952F923F924F925F926F927F92D7
:103DD0008F929F92AF92BF92CF92DF92EF92FF921B
:103DE0000F931F93CF93DF93CDB7DEB76C970FB6CA
:103DF000F894DEBF0FBECDBF9C8F8B8F5B011A0185
:103E00001F830E833701C982DC0158964D915C9166
:103E100059974115510509F0E5C018968D919C916F
:103E20001997681779070CF0CAC11A968D919C9161
:103E30001B97281639060CF0C2C18C2C912CFB0163
:103E400036E0C39EE00DF11D1124FB87EA871E16A4
:103E50001F060CF0B4C1C40133E0880F991F3A95D6
:103E6000E1F79D878C87820D931D181619060CF0BB
:103E7000A6C157968C91811103C0203B08F02F5F9B
:103E8000AB8DBC8DED91FC9111970284F385E02DF3
:103E9000CD012A8F19952A8DB5E02B9F9001112411
:103EA000F5013596FF87EE87BB82AA822501A9011D
:103EB0004A195B09598B488BC10108969B8B8A8BE9
:103EC000E889F989E40DF51DE852FE4F9491988731
:103ED00061013D822C82A885A0FF13C0AB8DBC8DF3
:103EE000ED91FC91B981B13031F40484F585E02D78
:103EF0002E813F8116C00684F785E02DEE80FF807D
:103F00001AC0EE81FF816E167F06F1F0AB8DBC8D7D
:103F1000ED91FC91B981B13051F40484F585E02D27
:103F20009301A601B2018B8D9C8D19950DC006845D
:103F3000F785E02D7301840194014C815D816A81D4
:103F40007B818B8D9C8D1995E885E695E887FFEF41
:103F5000CF1ADF0A2C813D81280D391D3D832C832A
:103F60004A895B89C416D50609F0B5CF5FEF451ABB
:103F7000550A8A819B81880D991D9B838A83AE8512
:103F8000BF854A165B0609F09BCFEE81FF816E1656
:103F90007F0609F4F2C0EB8DFC8DA081B181F9811F
:103FA000F13079F4B5016B5F7F4F5096ED91FC9144
:103FB0005197830128E030E0A1018B8D9C8D1995EC
:103FC000DCC06A857B85681979091E96ED91FC91A4
:103FD0001F9773010C851D859401A1018B8D9C8D0C
:103FE0001995CBC0FA0134969491329765917491EA
:103FF000291BCB01B7E02B9F800D911D1124FA01E5
:10400000259134913B8B2A8BFC01459154915B8324
:104010004A83FC013296C490319654915E87329661
:1040200014913196D4908981823058F0612E012EFE
:10403000000C7708AD2D0D2C000CBB0BB987A887A1
:1040400004C019861886612C712CAB8DBC8DED9146
:10405000FC9111970284F385E02DCD011995B9816A
:104060008B2E912C689CC001699C900D789C900DC2
:104070001124FC01EA0DFB1DFD87EC871C82712CCD
:10408000612CE12F110FFF0B95012E0F3F1F3B8776
:104090002A87AC0CB11CA5014E0F5F1F5F8B4E8BA6
:1040A000C1018D0D911DD7FC9A95998F888F4E85F2
:1040B000641608F062C0862D90E048855985480F47
:1040C000591F489D9001499D300D589D300D112478
:1040D000D901A20DB31DB98BA88BAA84BB844C84D3
:1040E0005D84DC80BA85DB1AE88DF98DE80FF91F55
:1040F000FD8BEC8B8D2D8A0D2E893F89A216B30680
:10410000B9F1877061F48A819B810196EA89FB8904
:10411000AA81BB81EA0FFB1F74909B838A8377FE81
:1041200020C0AB8DBC8DED91FC91B981B13061F4B3
:104130000484F585E02D2E813F814C895D89B50190
:104140008B8D9C8D19950DC00684F785E02DEE8032
:10415000FF808401940148895989B2018B8D9C8D1F
:104160001995770CEFEFAE1ABE0A480C591CC2CF56
:104170003C813C0D3C8363949ACFAB8DBC8DED911B
:10418000FC9111970688F789E02DCD016C960FB64A
:10419000F894DEBF0FBECDBFDF91CF911F910F917D
:1041A000FF90EF90DF90CF90BF90AF909F908F9057
:1041B0007F906F905F904F903F902F9019946C96E6
:1041C0000FB6F894DEBF0FBECDBFDF91CF911F9128
:1041D0000F91FF90EF90DF90CF90BF90AF909F90A6
:1041E0008F907F906F905F904F903F902F900895A9
:1041F000AF92BF92CF92EF92FF920F931F93CF9304
:10420000DF93EC01262F888D998D009709F03FC030
:104210006A3059F41D861C862C898E859F8538E06E
:10422000239F800D911D112440C06D3009F4A8C05A
:104230008E898823C1F03C898C859D8546E0349F1A
:10424000800D911D112448855985481759075CF444
:104250001D861C868E859F8548E0349F800D911DAC
:1042600011249F878E87EA88FB88088919894E85E3
:104270005F856C857D85CC88CE01A4DD2C898C85FD
:104280009D8536E0239F800D911D112442C06A3028
:1042900079F41D861C862C89FC013696E4918E8566
:1042A0009F852E9F800D911D11249F878E8768C04A
:1042B0006D3009F465C0FC0134963491631708F43D
:1042C0005FC03196E491E61708F45AC0FC013296BB
:1042D000A590B490462F50E0431B510937E0349F1E
:1042E000B001359F700D1124A60EB71EF501329650
:1042F00034913196E491332311F0E1110DC0F501B1
:104300003496E4912C898C859D85E29F800D911DCA
:1043100011249D878C8734C0F501359644915E89C0
:10432000552311F16C89E32FF0E0E40FF11D47FDF7
:10433000FA956E9FD0016F9FB00D11244C855D855D
:104340004A0F5B1FE885F985E417F5076CF41D86B5
:104350001C86FC013696E4918E859F856E9F800DAC
:10436000911D11249F878E87EA88FB880889198907
:104370004E855F856C857D85CC88CE0123DDBFCFE2
:1043800081E090E0DF91CF911F910F91FF90EF902E
:10439000CF90BF90AF9008956F927F928F929F922F
:1043A000AF92BF92CF92DF92EF92FF920F931F9343
:1043B000CF93DF93EC014B015A0169013801E88189
:1043C000F9810284F385E02D1995E881F98102884D
:1043D000F389E02D87019601A501B401CE0119955D
:1043E000E881F981A501460D571D41505109028808
:1043F000F389E02D9601B401CE011995E881F98188
:104400000088F189E02D9301A501B401CE01199531
:10441000E881F981C80CD91CB60161507109008886
:10442000F189E02D9301A501CE011995E881F9816B
:104430000688F789E02DCE01DF91CF911F910F9172
:10444000FF90EF90DF90CF90BF90AF909F908F90B4
:104450007F906F901994CF92DF92EF92FF920F931B
:104460001F93CF93DF9300D000D0CDB7DEB76C01A0
:10447000DC01ED91FC916217730789F404171507AD
:104480002CF4942F852FA801092F182F041B150B2E
:1044900098012F5F3F4F048CF58DE02D12C040171F
:1044A000510709F5261737072CF4962F872FB901E6
:1044B000292F382F261B370B2F5F3F4F068CF78D88
:1044C000E02D8701C601199526960FB6F894DEBF38
:1044D0000FBECDBFDF91CF911F910F91FF90EF9055
:1044E000DF90CF9008950284F385E02D2D833E83E5
:1044F0004B835C8369837A831995D601ED91FC9196
:104500000488F589E02D2D813E814B815C81698194
:104510007A81C6011995D601ED91FC910688F7893B
:10452000E02DC60126960FB6F894DEBF0FBECDBFB4
:10453000DF91CF911F910F91FF90EF90DF90CF907F
:104540001994EF92FF920F931F93DC01ED91FC9170
:1045500011971A960D911C911B9718962D913C91CD
:10456000199700A0F1A1E02D7B0140E050E060E050
:1045700070E019951F910F91FF90EF9008954F9261
:104580005F926F927F928F929F92AF92BF92CF92E3
:10459000DF92EF92FF920F931F93CF93DF931F92BF
:1045A0001F92CDB7DEB76C015A0139014801DC0119
:1045B000ED91FC910284F385E02D69837A8319954E
:1045C0006981462E7A81572E640C751CD601ED91B7
:1045D000FC91461457046CF40088F189E02D8701A2
:1045E0009401A501B201C6011995BFEF4B1A5B0AF0
:1045F000EDCF0688F789E02DC6010F900F90DF916F
:10460000CF911F910F91FF90EF90DF90CF90BF90CF
:10461000AF909F908F907F906F905F904F90199484
:10462000AF92BF92CF92DF92EF92FF920F931F93C0
:10463000CF93DF9300D01F92CDB7DEB75C01690145
:10464000DC01ED91FC910284F385E02D4B835C83CA
:1046500069837A831995D501ED91FC9169817A81FD
:104660009B012C0D3D1D215031090488F589E02D59
:1046700078014B815C818A01C5011995D501ED91C5
:10468000FC910688F789E02DC5010F900F900F90DF
:104690000F90DF91CF911F910F91FF90EF90DF90DE
:1046A000CF90BF90AF901994AF92BF92CF92DF920C
:1046B000EF92FF920F931F93CF93DF9300D01F923F
:1046C000CDB7DEB75C016901DC01ED91FC9102849C
:1046D000F385E02D4B835C8369837A831995D5013B
:1046E000ED91FC914B815C81C40ED51EB1E0CB1ADB
:1046F000D1080488F589E02D7801860169817A81E5
:104700009B01C5011995D501ED91FC910688F789AA
:10471000E02DC5010F900F900F900F90DF91CF917A
:104720001F910F91FF90EF90DF90CF90BF90AF90CF
:1047300019940895EF92FF920F931F93DC01ED916E
:10474000FC9100A0F1A1E02D19951F910F91FF9010
:10475000EF9008950F931F93DC01ED91FC91068C6F
:10476000F78DE02D19951F910F9108950F931F93C9
:10477000DC01ED91FC91048CF58DE02D19951F91D4
:104780000F910895DC01ED91FC910084F185E02DFD
:10479000199408952F923F924F925F926F927F9259
:1047A0008F929F92AF92BF92CF92DF92EF92FF9241
:1047B0000F931F93CF93DF9300D0CDB7DEB74C019B
:1047C0007B836A836A01590117019801241B350B09
:1047D00037FF03C0319521953109C5014A815B81BD
:1047E000841B950B97FF03C091958195910951E02A
:1047F00059838217930714F019820BC09A2D8B2DC1
:104800005801092F182F9A818B81DB82CA82C92E09
:10481000D82E8A819B81A816B9065CF49C2D8D2D1B
:104820006801092F182F9A818B81BB82AA82A92E39
:10483000B82E2501AA81BB814A1A5B0A38016C187F
:104840007D0877FE03C0719461947108720157FE70
:1048500003C0BFEFEB1AFB0AF594E794C016D1062C
:104860001CF00FEF1FEF1FC001E010E01CC0D401CF
:10487000ED91FC91B9810484F585E02D9101BB2374
:10488000C1F04A815B81B601C4011995E618F708A9
:10489000F7FE04C0C00ED11EE40CF51CEA81FB81BA
:1048A0003196FB83EA834A815B81A416B506FCF648
:1048B00004C0A6016A817B81E7CF0F900F900F9013
:1048C000DF91CF911F910F91FF90EF90DF90CF90EC
:1048D000BF90AF909F908F907F906F905F904F9020
:1048E0003F902F900895FC016130710559F06230BE
:1048F000710571F0672BA1F480E094E294878387BF
:104900008FE00BC08BE094E29487838786E005C03C
:1049100086E194E29487838784E0858781E0089527
:1049200080E008950C94DF3A0C94DF3A08950895DE
:10493000CF93DF93FC0184819581009751F0EF01C3
:10494000DC01ED91FC910280F381E02D19951D822F
:104950001C82DF91CF910895FC01A089B1898C91CF
:10496000A689B78982FD0FC09C91818D8F5F8F735F
:10497000228D821749F0218DDF01A20FB11D5D96B6
:104980009C93818F08958C910895FC01538D448DE3
:10499000252F30E0842F90E0821B930B541710F0EA
:1049A000CF96089501970895FC01918D828D9817F7
:1049B00061F0828DDF01A80FB11D5D968C91928D03
:1049C0009F5F9F73928F90E008958FEF9FEF089500
:1049D000FC01918D828D981731F0828DE80FF11DC9
:1049E000858D90E008958FEF9FEF0895FC01918DE4
:1049F000228D892F90E0805C9F4F821B91098F73DD
:104A0000992708958DE89BE0F1DF21E0892B09F4D7
:104A100020E0822F08958AE29CE0E8DF21E0892BE4
:104A200009F420E0822F0895FC01848DDF01A80F96
:104A3000B11DA35ABF4F2C91848D90E001968F73C6
:104A40009927848FA689B7892C93A089B1898C91E5
:104A500080648C93938D848D981306C00288F389AB
:104A6000E02D80818F7D80830895EF92FF920F93D8
:104A70001F93CF93DF93EC0181E0888F9B8D8C8D0A
:104A8000981305C0E889F989808185FD23C0F62E39
:104A90000B8D10E00F5F1F4F0F731127E02E8C8DD1
:104AA000E8120BC00FB607FCFACFE889F9898081BC
:104AB00085FFF5CFCE01B8DFF2CF8B8DFE01E80F79
:104AC000F11DE35AFF4FF0820B8FEA89FB89808149
:104AD000806207C0EE89FF896083E889F989808157
:104AE0008064808381E090E0DF91CF911F910F91EE
:104AF000FF90EF900895CF93DF93EC01888D88238A
:104B0000C1F0EA89FB89808185FD05C0A889B98942
:104B10008C9186FD0EC00FB607FCF5CF808185FF16
:104B2000F2CFA889B9898C9185FFEDCFCE017CDFCA
:104B3000E8CFDF91CF91089580E090E0892B19F0C4
:104B40006ADF811120C080E090E0892B19F05ADFE4
:104B500081111CC080E090E0892B41F080E090E062
:104B6000892B21F00E940000811113C080E090E0A9
:104B7000892BA1F080E090E0892B81F00E94000059
:104B800081110AC008950E940000DDCF0E9400003C
:104B9000E1CF0E940000EACF0C940000089590E05D
:104BA000FC013197E231F10508F04EC08827E65844
:104BB000FF4F8F4F0C942E3A809180008F7703C067
:104BC000809180008F7D8093800008958091800087
:104BD000877FF9CF84B58F7702C084B58F7D84BD80
:104BE00008958091B0008F7703C08091B0008F7DD1
:104BF0008093B0000895809190008F7707C08091D6
:104C000090008F7D03C080919000877F80939000FB
:104C100008958091A0008F7707C08091A0008F7DBC
:104C200003C08091A000877F8093A00008958091A9
:104C300020018F7707C0809120018F7D03C0809174
:104C40002001877F8093200108953FB7F8948091D9
:104C5000921190919311A0919411B091951126B554
:104C6000A89B05C02F3F19F00196A11DB11D3FBFA4
:104C7000BA2FA92F982F8827820F911DA11DB11D32
:104C8000BC01CD0142E0660F771F881F991F4A952E
:104C9000D1F7089508950F931F93CF93DF93DC010D
:104CA00055968C915597823071F0833009F181309F
:104CB00009F08CC01496ED91FC911597E41BF50B4F
:104CC000E21BF30B20C01496ED91FC911597CF01D8
:104CD000861B970BBC01615071091696ED91FC91F2
:104CE0001797CF01841B950BAC01421B530B6EC071
:104CF0001696ED91FC911797CF01861B970BBC017F
:104D000061507109FA0177FD1BC116968D919C9136
:104D10001797681779070CF013C1F7FF04C02E0F1F
:104D20003F1FE0E0F0E014968D919C911597AF0144
:104D3000420F531F841795071CF49C012E1B3F0B39
:104D4000121613060CF0FCC0CB0177FD079643E06A
:104D5000959587954A95E1F79695982F8827979589
:104D60008795E80FF91FEA5FFD4F6770772781E0AD
:104D700090E001C0880F6A95EAF7482F01301105CD
:104D800041F088F00230110509F0DAC02E0F3F1F04
:104D900015C02E0F3F1FE217F30709F4D1C0808121
:104DA000842B8193F8CF80952E0F3F1FE217F307D6
:104DB00009F4C6C0908198239193F8CFE217F307C6
:104DC00009F4BEC0808184278193F8CF77FDB8C0F5
:104DD00014968D919C911597681779070CF0B0C0C7
:104DE00057FF04C0240F351F40E050E016968D9108
:104DF0009C911797FA01E20FF31F8E179F071CF47F
:104E00009C01241B350B121613060CF099C0A22F1F
:104E1000842F86958695869590E8899F600D711DF3
:104E20001124FB01EA5FFD4F4770A9F198E0941B44
:104E3000492F50E0EA01C85ED84F8881291790F4C5
:104E4000421B51092FEF30E002C0359527954A9556
:104E5000E2F782230130110541F068F002301105BC
:104E600089F06EC00130110519F42081822B0CC02D
:104E70000130110520F480952081822305C0023085
:104E8000110531F4208182278083A91708F458C0C6
:104E9000A91BE058FF4FA83048F10230110559F422
:104EA000EF018A2F988190959883C058DF4F8850E2
:104EB0008830C0F730C081E00130110509F080E092
:104EC0008195EF019A2F8883C058DF4F9850983012
:104ED000D0F788EF8A0F86958695869590E8899F0A
:104EE000E00DF11D1124E058FF4FA770AA2341F1F6
:104EF000B0E0A05FB84F8C910130110529F038F077
:104F000002301105D1F01CC09081892B18C080950A
:104F10009081892314C088EF8A0F8695869586959F
:104F200090E8899FE00DF11D1124E058FF4FA77014
:104F300039F0B0E0A05FB84F8C91908189278083D1
:104F4000DF91CF911F910F9108950E945B3C1F92BA
:104F50000F920FB60F9211240BB60F922F933F931F
:104F60004F935F936F937F938F939F93AF93BF9371
:104F7000EF93FF938DE89BE057DDFF91EF91BF9199
:104F8000AF919F918F917F916F915F914F913F91E1
:104F90002F910F900BBE0F900FBE0F901F90189582
:104FA0001F920F920FB60F9211240BB60F922F93F0
:104FB0003F934F935F936F937F938F939F93AF93A1
:104FC000BF93EF93FF938DE89BE0C6DCFF91EF91D9
:104FD000BF91AF919F918F917F916F915F914F9111
:104FE0003F912F910F900BBE0F900FBE0F901F900F
:104FF00018951F920F920FB60F9211240BB60F92B5
:105000002F933F934F935F936F937F938F939F93D0
:10501000AF93BF93EF93FF938AE29CE005DDFF918E
:10502000EF91BF91AF919F918F917F916F915F9120
:105030004F913F912F910F900BBE0F900FBE0F908D
:105040001F9018951F920F920FB60F9211240BB656
:105050000F922F933F934F935F936F937F938F9311
:105060009F93AF93BF93EF93FF938AE29CE074DC2E
:10507000FF91EF91BF91AF919F918F917F916F9130
:105080005F914F913F912F910F900BBE0F900FBEEC
:105090000F901F901895CF93DF93282F30E0F901E0
:1050A000EE50F94F8491F901EE5CFE4FD491F90175
:1050B000EE56FE4FC491CC2389F0811170DDEC2FA8
:1050C000F0E0EE0FFF1FE852F94FA591B491EC917B
:1050D000ED2381E090E021F480E002C080E090E0E8
:1050E000DF91CF9108951F93CF93DF93282F30E066
:1050F000F901EE50F94F8491F901EE5CFE4FD49125
:10510000F901EE56FE4FC491CC23C1F0162F811148
:1051100046DDEC2FF0E0EE0FFF1FE858FE4FA591A3
:10512000B4918FB7F894111105C09C91ED2FE095C3
:10513000E92302C0EC91ED2BEC938FBFDF91CF916F
:105140001F910895CF93DF9390E0FC01EE5CFE4F3A
:105150002491FC01EE56FE4F8491882361F190E08A
:10516000880F991FFC01E85EFE4FC591D491FC01A8
:10517000E858FE4FA591B491611109C09FB7F8940A
:105180008881209582238883EC912E230BC0623086
:1051900061F49FB7F8943881822F809583238883A8
:1051A000EC912E2B2C939FBF06C08FB7F894E8810B
:1051B0002E2B28838FBFDF91CF9108958F929F92DE
:1051C000AF92BF92CF92DF92EF92FF926B017C0180
:1051D0003CDD4B015C01C114D104E104F104E9F0B0
:1051E00034DDDC01CB0188199909AA09BB09883E85
:1051F0009340A105B10578F321E0C21AD108E10876
:10520000F10888EE880E83E0981EA11CB11CC11421
:10521000D104E104F10421F7DECFFF90EF90DF909D
:10522000CF90BF90AF909F908F9008952FB7F89434
:1052300060918E1170918F118091901190919111C8
:105240002FBF08951F920F920FB60F9211242F9324
:105250003F938F939F93AF93BF9380918E119091C3
:105260008F11A0919011B091911130918D1123E087
:10527000230F2D3720F40196A11DB11D05C026E88E
:10528000230F0296A11DB11D20938D1180938E11C5
:1052900090938F11A0939011B093911180919211DE
:1052A00090919311A0919411B09195110196A11D27
:1052B000B11D8093921190939311A0939411B09388
:1052C0009511BF91AF919F918F913F912F910F9029
:1052D0000FBE0F901F9018951F920F920FB60F924E
:1052E00011240BB60F922F933F934F935F936F93BD
:1052F0007F938F939F93AF93BF93EF93FF93E0912F
:105300001406F09115061995FF91EF91BF91AF9199
:105310009F918F917F916F915F914F913F912F91CD
:105320000F900BBE0F900FBE0F901F9018951F92FD
:105330000F920FB60F9211240BB60F922F933F933B
:105340004F935F936F937F938F939F93AF93BF938D
:10535000EF93FF93E0911206F09113061995FF91D8
:10536000EF91BF91AF919F918F917F916F915F91DD
:105370004F913F912F910F900BBE0F900FBE0F904A
:105380001F9018951F920F920FB60F9211240BB613
:105390000F922F933F934F935F936F937F938F93CE
:1053A0009F93AF93BF93EF93FF93E0910806F09123
:1053B00009061995FF91EF91BF91AF919F918F9140
:1053C0007F916F915F914F913F912F910F900BBE05
:1053D0000F900FBE0F901F9018951F920F920FB64F
:1053E0000F9211240BB60F922F933F934F935F931D
:1053F0006F937F938F939F93AF93BF93EF93FF939D
:10540000E0910606F09107061995FF91EF91BF9183
:10541000AF919F918F917F916F915F914F913F914C
:105420002F910F900BBE0F900FBE0F901F901895ED
:105430001F920F920FB60F9211240BB60F922F935B
:105440003F934F935F936F937F938F939F93AF930C
:10545000BF93EF93FF93E0911006F0911106199519
:10546000FF91EF91BF91AF919F918F917F916F913C
:105470005F914F913F912F910F900BBE0F900FBEF8
:105480000F901F9018951F920F920FB60F92112434
:105490000BB60F922F933F934F935F936F937F932E
:1054A0008F939F93AF93BF93EF93FF93E0910E067B
:1054B000F0910F061995FF91EF91BF91AF919F91D8
:1054C0008F917F916F915F914F913F912F910F90AD
:1054D0000BBE0F900FBE0F901F9018951F920F924A
:1054E0000FB60F9211240BB60F922F933F934F9349
:1054F0005F936F937F938F939F93AF93BF93EF933C
:10550000FF93E0910C06F0910D061995FF91EF9134
:10551000BF91AF919F918F917F916F915F914F91CB
:105520003F912F910F900BBE0F900FBE0F901F90C9
:1055300018951F920F920FB60F9211240BB60F926F
:105540002F933F934F935F936F937F938F939F938B
:10555000AF93BF93EF93FF93E0910A06F0910B0690
:105560001995FF91EF91BF91AF919F918F917F918D
:105570006F915F914F913F912F910F900BBE0F90C4
:105580000FBE0F901F901895FC01862F41E050E050
:1055900060E070E004C0440F551F661F771F8A95B6
:1055A000D2F78189842B818B409582894823428B55
:1055B0000895EF92FF921F93CF93DF931F92CDB781
:1055C000DEB77C01162FDC0118966C9118971B969C
:1055D0008D919C911C97498382D3F701208D49813D
:1055E000413071F441E050E060E070E004C0440FED
:1055F000551F661F771F1A95D2F7422B408F0EC09A
:1056000081E090E0A0E0B0E004C0880F991FAA1FDD
:10561000BB1F1A95D2F780958223808FF70161898D
:10562000808D6823608F83859485DC01ED91FC91EA
:105630000190F081E02D1995F701838594850F90F5
:10564000DF91CF911F91FF90EF9047C3CF92DF92F0
:10565000EF92FF921F93CF93DF93EC01162F8B896C
:1056600090E0A0E0B0E004C0B695A7959795879527
:105670006A95D2F780FD42C0D9DDCC88DD88EE88FE
:10568000FF882AE0C20ED11CE11CF11CC616D70609
:10569000E806F90608F043C041E068858B859C85E3
:1056A0000E945F17C3DD6C8B7D8B8E8B9F8B8B85F0
:1056B0009C85DC01ED91FC910084F185E02D19952C
:1056C000892B69F18B859C85DC01ED91FC9102842D
:1056D000F385E02D19959A89982309F19B89892BE7
:1056E0008B8B90E0A0E0B0E0012E04C0B695A795AA
:1056F000979587950A94D2F780FF11C081E090E0DA
:10570000A0E0B0E004C0880F991FAA1FBB1F1A9524
:10571000D2F780959B8989238B8B81E001C080E043
:10572000DF91CF911F91FF90EF90DF90CF90089580
:10573000CF93DF93EC018B859C850E946A17898942
:10574000811103C08A898823B9F068858B859C857F
:10575000C6D2AB85BC85ED91FC9111976A89998978
:10576000692B70E0609570950190F081E02DCD017E
:1057700019958B859C85B1D28D858823D1F062E007
:105780008E85E0DC2F8538899E859230D1F093306C
:10579000D1F08EEE890F843060F487E1891B14C04C
:1057A000823081F5809169008C7F826080936900EE
:1057B000E89A3CDD6C8B7D8B8E8B9F8BDF91CF913C
:1057C000089580E001C081E0E82FF0E0EE0FFF1FB8
:1057D000EA5FF94F31832083833041F4809169007F
:1057E000837F886080936900E99AE3CF843090F4E6
:1057F0008130B1F680916A00837F886080936A006F
:10580000ED9AD7CF80916A008C7F826080936A0086
:10581000EC9ACFCF843041F4809169008F7C806214
:1058200080936900EA9AC5CF853061F7809169005D
:105830008F73806880936900EB9ABBCF8091991138
:1058400090E020919811821B9109089580E00895BD
:1058500080E0089585ED8093BC008091BC0084FDBC
:10586000FCCF10928C0B08954091DE11262F30E072
:10587000240F311D21323105DCF420918C0B2430B2
:10588000C9F4FC0180E090E0861758F43091DE11F5
:105890002191DC01A454BE4EA30FB11D2C9301969F
:1058A000F3CF8091DE11680F6093DE1180E00895E0
:1058B00081E0089582E008950895E0919811809123
:1058C0009911E81730F4F0E0EA5BF44F808190E042
:1058D00008958FEF9FEF08959091981180919911FD
:1058E000981750F4E92FF0E0EA5BF44F208130E0A4
:1058F0009F5F9093981102C02FEF3FEFC901089569
:10590000CF92DF92EF92FF920F931F93CF93DF938B
:105910007C01262F972F8A018091BB11882391F05B
:10592000C62FD72F6E01C40ED51ECC15DD0569F02C
:105930006991D701ED91FC910190F081E02DC701B3
:105940001995F3CF642F822F8FDFC801DF91CF919C
:105950001F910F91FF90EF90DF90CF900895CF931C
:10596000DF931F92CDB7DEB769832091BB1122234D
:10597000D1F020919711203240F021E030E0FC017D
:105980003383228380E090E014C080919611E82F49
:10599000F0E0E556FE4E998190838F5F80939611DB
:1059A0008093971104C061E0CE0101965DDF81E034
:1059B00090E00F90DF91CF910895209197119091F1
:1059C0009A11213208F049C080918C0B8111FCCFD3
:1059D00032E030938C0B60938B0B3FEF30938A0B4C
:1059E0001092890B2093880BABE9B1E146E65BE0AE
:1059F000FA013E2F341B321718F43D913193F9CF41
:105A00001092870B2091870B990F922B9093870B05
:105A10009091860B913061F41092860B9091870BD8
:105A20009093BB009091BC0093FDF8CF95EC01C022
:105A300095EE9093BC0090918C0B9230E1F3909195
:105A40008A0B9F3F79F080918A0B803241F08091E0
:105A50008A0B803331F084E005C081E003C082E02E
:105A600001C083E010929611109297111092BB1111
:105A700008950C94DF3A08951F920F920FB60F927B
:105A800011240BB60F922F933F934F935F936F9315
:105A90007F938F939F93AF93BF93EF93FF938091E7
:105AA000B900887F803609F49CC068F5883209F413
:105AB0005BC090F4803109F454C038F4882309F4B1
:105AC000F6C0883009F44DC0F5C0883109F44CC0E7
:105AD000803209F45DC0EEC0803409F468C048F437
